{
  "contractName": "MillionPixel",
  "abi": [
    {
      "constant": false,
      "inputs": [],
      "name": "renounceOwnership",
      "outputs": [],
      "payable": false,
      "stateMutability": "nonpayable",
      "type": "function"
    },
    {
      "constant": true,
      "inputs": [],
      "name": "owner",
      "outputs": [
        {
          "name": "",
          "type": "address"
        }
      ],
      "payable": false,
      "stateMutability": "view",
      "type": "function"
    },
    {
      "constant": false,
      "inputs": [
        {
          "name": "_newOwner",
          "type": "address"
        }
      ],
      "name": "transferOwnership",
      "outputs": [],
      "payable": false,
      "stateMutability": "nonpayable",
      "type": "function"
    },
    {
      "constant": true,
      "inputs": [
        {
          "name": "",
          "type": "uint256"
        },
        {
          "name": "",
          "type": "uint256"
        }
      ],
      "name": "Advertises",
      "outputs": [
        {
          "name": "x",
          "type": "int256"
        },
        {
          "name": "y",
          "type": "int256"
        },
        {
          "name": "width",
          "type": "uint256"
        },
        {
          "name": "height",
          "type": "uint256"
        },
        {
          "name": "name",
          "type": "string"
        },
        {
          "name": "image",
          "type": "string"
        },
        {
          "name": "text",
          "type": "string"
        }
      ],
      "payable": false,
      "stateMutability": "view",
      "type": "function"
    },
    {
      "inputs": [],
      "payable": false,
      "stateMutability": "nonpayable",
      "type": "constructor"
    },
    {
      "anonymous": false,
      "inputs": [
        {
          "indexed": true,
          "name": "previousOwner",
          "type": "address"
        }
      ],
      "name": "OwnershipRenounced",
      "type": "event"
    },
    {
      "anonymous": false,
      "inputs": [
        {
          "indexed": true,
          "name": "previousOwner",
          "type": "address"
        },
        {
          "indexed": true,
          "name": "newOwner",
          "type": "address"
        }
      ],
      "name": "OwnershipTransferred",
      "type": "event"
    },
    {
      "constant": true,
      "inputs": [
        {
          "name": "x",
          "type": "uint256"
        },
        {
          "name": "y",
          "type": "uint256"
        }
      ],
      "name": "pixPrice",
      "outputs": [
        {
          "name": "",
          "type": "uint256"
        }
      ],
      "payable": false,
      "stateMutability": "view",
      "type": "function"
    },
    {
      "constant": true,
      "inputs": [
        {
          "name": "x",
          "type": "int256"
        },
        {
          "name": "y",
          "type": "int256"
        },
        {
          "name": "sx",
          "type": "uint256"
        },
        {
          "name": "sy",
          "type": "uint256"
        }
      ],
      "name": "getPrice",
      "outputs": [
        {
          "name": "",
          "type": "uint256"
        }
      ],
      "payable": false,
      "stateMutability": "view",
      "type": "function"
    },
    {
      "constant": false,
      "inputs": [
        {
          "name": "x",
          "type": "int256"
        },
        {
          "name": "y",
          "type": "int256"
        },
        {
          "name": "width",
          "type": "uint256"
        },
        {
          "name": "height",
          "type": "uint256"
        }
      ],
      "name": "buySquare",
      "outputs": [],
      "payable": true,
      "stateMutability": "payable",
      "type": "function"
    },
    {
      "constant": true,
      "inputs": [
        {
          "name": "position",
          "type": "bytes"
        }
      ],
      "name": "isAvailable",
      "outputs": [
        {
          "name": "",
          "type": "bool"
        }
      ],
      "payable": false,
      "stateMutability": "view",
      "type": "function"
    },
    {
      "constant": false,
      "inputs": [
        {
          "name": "x",
          "type": "int256"
        },
        {
          "name": "sx",
          "type": "int256"
        },
        {
          "name": "y",
          "type": "int256"
        },
        {
          "name": "sy",
          "type": "int256"
        }
      ],
      "name": "checkSquare",
      "outputs": [
        {
          "name": "",
          "type": "int256"
        }
      ],
      "payable": false,
      "stateMutability": "nonpayable",
      "type": "function"
    },
    {
      "constant": false,
      "inputs": [],
      "name": "withdraw",
      "outputs": [],
      "payable": false,
      "stateMutability": "nonpayable",
      "type": "function"
    },
    {
      "constant": false,
      "inputs": [],
      "name": "donate",
      "outputs": [
        {
          "name": "",
          "type": "string"
        }
      ],
      "payable": true,
      "stateMutability": "payable",
      "type": "function"
    }
  ],
  "bytecode": "0x608060405234801561001057600080fd5b50336000806101000a81548173ffffffffffffffffffffffffffffffffffffffff021916908373ffffffffffffffffffffffffffffffffffffffff16021790555033600160006101000a81548173ffffffffffffffffffffffffffffffffffffffff021916908373ffffffffffffffffffffffffffffffffffffffff160217905550610e1b806100a16000396000f3006080604052600436106100af576000357c0100000000000000000000000000000000000000000000000000000000900463ffffffff16806312ac3757146100b45780633ccfd60b146101135780634ca372dd1461012a5780635cd66e3814610168578063715018a6146101b35780638bf2dfa0146101ca5780638da5cb5b14610229578063ed88c68e14610280578063f2fde38b14610303578063fcdcdade14610346578063fd22fc81146103c7575b600080fd5b3480156100c057600080fd5b506100fd6004803603810190808035906020019092919080359060200190929190803590602001909291908035906020019092919050505061056b565b6040518082815260200191505060405180910390f35b34801561011f57600080fd5b506101286105d7565b005b610166600480360381019080803590602001909291908035906020019092919080359060200190929190803590602001909291905050506106b4565b005b34801561017457600080fd5b5061019d60048036038101908080359060200190929190803590602001909291905050506106d4565b6040518082815260200191505060405180910390f35b3480156101bf57600080fd5b506101c861071b565b005b3480156101d657600080fd5b506102136004803603810190808035906020019092919080359060200190929190803590602001909291908035906020019092919050505061081d565b6040518082815260200191505060405180910390f35b34801561023557600080fd5b5061023e6108e4565b604051808273ffffffffffffffffffffffffffffffffffffffff1673ffffffffffffffffffffffffffffffffffffffff16815260200191505060405180910390f35b610288610909565b6040518080602001828103825283818151815260200191508051906020019080838360005b838110156102c85780820151818401526020810190506102ad565b50505050905090810190601f1680156102f55780820380516001836020036101000a031916815260200191505b509250505060405180910390f35b34801561030f57600080fd5b50610344600480360381019080803573ffffffffffffffffffffffffffffffffffffffff169060200190929190505050610946565b005b34801561035257600080fd5b506103ad600480360381019080803590602001908201803590602001908080601f01602080910402602001604051908101604052809392919081815260200183838082843782019150505050505091929192905050506109ad565b604051808215151515815260200191505060405180910390f35b3480156103d357600080fd5b506103fc6004803603810190808035906020019092919080359060200190929190505050610a7f565b60405180888152602001878152602001868152602001858152602001806020018060200180602001848103845287818151815260200191508051906020019080838360005b8381101561045c578082015181840152602081019050610441565b50505050905090810190601f1680156104895780820380516001836020036101000a031916815260200191505b50848103835286818151815260200191508051906020019080838360005b838110156104c25780820151818401526020810190506104a7565b50505050905090810190601f1680156104ef5780820380516001836020036101000a031916815260200191505b50848103825285818151815260200191508051906020019080838360005b8381101561052857808201518184015260208101905061050d565b50505050905090810190601f1680156105555780820380516001836020036101000a031916815260200191505b509a505050505050505050505060405180910390f35b600080600080600092508691505b8487018212156105c9578790505b8588018112156105bc576105ad61059e82846106d4565b84610ca190919063ffffffff16565b92508080600101915050610587565b8180600101925050610579565b829350505050949350505050565b6000809054906101000a900473ffffffffffffffffffffffffffffffffffffffff1673ffffffffffffffffffffffffffffffffffffffff163373ffffffffffffffffffffffffffffffffffffffff1614151561063257600080fd5b600160009054906101000a900473ffffffffffffffffffffffffffffffffffffffff1673ffffffffffffffffffffffffffffffffffffffff166108fc3073ffffffffffffffffffffffffffffffffffffffff16319081150290604051600060405180830381858888f193505050501580156106b1573d6000803e3d6000fd5b50565b6106c08484848461056b565b34101515156106ce57600080fd5b50505050565b60006106e98283610cbd90919063ffffffff16565b6106fc8485610cbd90919063ffffffff16565b60010101671bc16d674ec8000081151561071257fe5b04905092915050565b6000809054906101000a900473ffffffffffffffffffffffffffffffffffffffff1673ffffffffffffffffffffffffffffffffffffffff163373ffffffffffffffffffffffffffffffffffffffff1614151561077657600080fd5b6000809054906101000a900473ffffffffffffffffffffffffffffffffffffffff1673ffffffffffffffffffffffffffffffffffffffff167ff8df31144d9c2f0f6b59d69b8b98abd5459d07f2742c4df920b25aae33c6482060405160405180910390a260008060006101000a81548173ffffffffffffffffffffffffffffffffffffffff021916908373ffffffffffffffffffffffffffffffffffffffff160217905550565b600080600080600080600080600095506000945060009350600092508b8b131561084c578b94508a9250610853565b8a94508b92505b898913156108665789955088935061086d565b8895508993505b8591505b838212156108d5578490505b828112156108c857600062011172600060405160405180910390206000191660001916815260200190815260200160002060009054906101000a90505050808060010191505061087d565b8180600101925050610871565b50505050505050949350505050565b6000809054906101000a900473ffffffffffffffffffffffffffffffffffffffff1681565b60606040805190810160405280600981526020017f5468616e6b20796f750000000000000000000000000000000000000000000000815250905090565b6000809054906101000a900473ffffffffffffffffffffffffffffffffffffffff1673ffffffffffffffffffffffffffffffffffffffff163373ffffffffffffffffffffffffffffffffffffffff161415156109a157600080fd5b6109aa81610cf5565b50565b600080620111726000846040518082805190602001908083835b6020831015156109ec57805182526020820191506020810190506020830392506109c7565b6001836020036101000a03801982511681845116808217855250505050505090500191505060405180910390206000191660001916815260200190815260200160002060009054906101000a900473ffffffffffffffffffffffffffffffffffffffff1673ffffffffffffffffffffffffffffffffffffffff161415610a755760019050610a7a565b600090505b919050565b600282606481101515610a8e57fe5b6102bc020181606481101515610aa057fe5b6007020160009150915050806000015490806001015490806002015490806003015490806004018054600181600116156101000203166002900480601f016020809104026020016040519081016040528092919081815260200182805460018160011615610100020316600290048015610b5b5780601f10610b3057610100808354040283529160200191610b5b565b820191906000526020600020905b815481529060010190602001808311610b3e57829003601f168201915b505050505090806005018054600181600116156101000203166002900480601f016020809104026020016040519081016040528092919081815260200182805460018160011615610100020316600290048015610bf95780601f10610bce57610100808354040283529160200191610bf9565b820191906000526020600020905b815481529060010190602001808311610bdc57829003601f168201915b505050505090806006018054600181600116156101000203166002900480601f016020809104026020016040519081016040528092919081815260200182805460018160011615610100020316600290048015610c975780601f10610c6c57610100808354040283529160200191610c97565b820191906000526020600020905b815481529060010190602001808311610c7a57829003601f168201915b5050505050905087565b60008183019050828110151515610cb457fe5b80905092915050565b600080831415610cd05760009050610cef565b8183029050818382811515610ce157fe5b04141515610ceb57fe5b8090505b92915050565b600073ffffffffffffffffffffffffffffffffffffffff168173ffffffffffffffffffffffffffffffffffffffff1614151515610d3157600080fd5b8073ffffffffffffffffffffffffffffffffffffffff166000809054906101000a900473ffffffffffffffffffffffffffffffffffffffff1673ffffffffffffffffffffffffffffffffffffffff167f8be0079c531659141344cd1fd0a4f28419497f9722a3daafe3b4186f6b6457e060405160405180910390a3806000806101000a81548173ffffffffffffffffffffffffffffffffffffffff021916908373ffffffffffffffffffffffffffffffffffffffff160217905550505600a165627a7a7230582032ed46870ff0cdc92a450ce9ec23516ef0be21d8d26e7e8951752324caa9c2e50029",
  "source": "pragma solidity ^0.4.23;\n\nimport \"../node_modules/openzeppelin-solidity/contracts/ownership/Ownable.sol\";\nimport \"../node_modules/openzeppelin-solidity/contracts/math/SafeMath.sol\";\nimport \"../node_modules/solidity-stringutils/src/strings.sol\";\n\ncontract MillionPixel is Ownable {\n    \n    using SafeMath for uint256;\n    using strings for *;\n    \n    address internal owner;\n    uint constant centralPixPrice=2000000000000000000; //2 ether\n    uint constant minSquare=10; // 10x10 pixel squares represent minimun advertisement size\n    uint constant squareDensity=100; // 100 pixels per square as 10x10 == 100\n     \n    struct AdvertisementModel\n    {\n        int256 x;\n        int256 y;\n        uint256 width;\n        uint256 height;\n        string name;\n        string image;\n        string text;\n    }\n\n    AdvertisementModel[100][100] public Advertises;\n    \n    \n    mapping (bytes32=>address) pixelOwner;\n\n\n    constructor() public {\n        \n        owner = msg.sender;\n    }\n    \n    function pixPrice(uint256 x,uint256 y) public view returns (uint256)\n    {\n        return ( centralPixPrice / (1+x.mul(x)+y.mul(y)) );\n    }\n    //\n    function getPrice(int256 x,int256 y,uint sx,uint sy) public view returns(uint256)\n    {\n        uint256 finalPrice = 0;\n        \n        for(int256 currentY = y ;currentY<y+int256(sy);currentY++)\n        {\n            for(int256 currentX = x;currentX<x+int256(sx);currentX++)\n            {\n                finalPrice = finalPrice.add(pixPrice(uint(currentX),uint(currentY)));\n            }\n        }\n        return finalPrice;            \n    }\n    function buySquare(int x, int y, uint width, uint height) public payable \n    {\n        require(msg.value >= getPrice(x,y,width,height));\n        \n    }\n    function isAvailable(bytes position) public view returns(bool)\n    {\n        if(pixelOwner[keccak256(position)]==0x00000000000000000000000000000000) return true;\n        else return false;                   \n    }\n    function checkSquare(int256 x,int256 sx,int256 y,int256 sy) public returns(int256)\n    {\n        string word;\n        int256 startY = 0;\n        int256 startX = 0;\n        int256 finalY = 0;\n        int256 finalX = 0;\n               \n        if(sx>x)\n        {\n            startX = x;\n            finalX = sx;\n        }\n        else \n        {\n            startX = sx;\n            finalX = x;\n        }\n        if(sy>y)\n        {\n            startY = y;\n            finalY = sy;\n        }\n        else\n        {\n            startY = sy;\n            finalY = y;\n        }  \n        for(int256 currentY = startY;currentY<finalY;currentY++)\n        {\n            for(int256 currentX = startX;currentX<finalX;currentX++)\n            {                                \n                /*bytes32 letter = \"(\";\n                word=word+bytes32(currentY);\n                word=word+\",\";\n                word=word+currentX;\n                */\n                if(pixelOwner[keccak256()]==0x00000000000000000000000000000000)\n                {\n\n                }\n            }\n        }\n        return;\n    }\n\n    function withdraw() public onlyOwner\n    {\n        owner.transfer(this.balance);\n    }\n    function donate() public payable returns(string)\n    {\n        return \"Thank you\";\n    }    \n}",
  "sourcePath": "/home/fscucchiero/Desktop/git/SmartContract_dev/millionPixels/contracts/MillionPixel.sol",
  "compiler": {
    "name": "solc",
    "version": "0.4.24+commit.e67f0147.Emscripten.clang"
  },
  "schemaVersion": "2.0.0",
  "updatedAt": "2018-07-02T20:19:30.266Z"
}