{
  "contractName": "MillionPixel",
  "abi": [
    {
      "constant": false,
      "inputs": [],
      "name": "renounceOwnership",
      "outputs": [],
      "payable": false,
      "stateMutability": "nonpayable",
      "type": "function"
    },
    {
      "constant": true,
      "inputs": [],
      "name": "owner",
      "outputs": [
        {
          "name": "",
          "type": "address"
        }
      ],
      "payable": false,
      "stateMutability": "view",
      "type": "function"
    },
    {
      "constant": true,
      "inputs": [],
      "name": "centralPixPrice",
      "outputs": [
        {
          "name": "",
          "type": "uint256"
        }
      ],
      "payable": false,
      "stateMutability": "view",
      "type": "function"
    },
    {
      "constant": false,
      "inputs": [
        {
          "name": "_newOwner",
          "type": "address"
        }
      ],
      "name": "transferOwnership",
      "outputs": [],
      "payable": false,
      "stateMutability": "nonpayable",
      "type": "function"
    },
    {
      "inputs": [
        {
          "name": "price",
          "type": "uint256"
        }
      ],
      "payable": false,
      "stateMutability": "nonpayable",
      "type": "constructor"
    },
    {
      "anonymous": false,
      "inputs": [
        {
          "indexed": true,
          "name": "previousOwner",
          "type": "address"
        }
      ],
      "name": "OwnershipRenounced",
      "type": "event"
    },
    {
      "anonymous": false,
      "inputs": [
        {
          "indexed": true,
          "name": "previousOwner",
          "type": "address"
        },
        {
          "indexed": true,
          "name": "newOwner",
          "type": "address"
        }
      ],
      "name": "OwnershipTransferred",
      "type": "event"
    },
    {
      "constant": false,
      "inputs": [
        {
          "name": "price",
          "type": "uint256"
        }
      ],
      "name": "setPixPrice",
      "outputs": [],
      "payable": false,
      "stateMutability": "nonpayable",
      "type": "function"
    },
    {
      "constant": false,
      "inputs": [],
      "name": "withdraw",
      "outputs": [],
      "payable": false,
      "stateMutability": "nonpayable",
      "type": "function"
    }
  ],
  "bytecode": "0x608060405234801561001057600080fd5b5060405160208061066483398101806040528101908080519060200190929190505050336000806101000a81548173ffffffffffffffffffffffffffffffffffffffff021916908373ffffffffffffffffffffffffffffffffffffffff1602179055508060028190555033600160006101000a81548173ffffffffffffffffffffffffffffffffffffffff021916908373ffffffffffffffffffffffffffffffffffffffff16021790555050610599806100cb6000396000f300608060405260043610610078576000357c0100000000000000000000000000000000000000000000000000000000900463ffffffff1680633ccfd60b1461007d578063715018a6146100945780638da5cb5b146100ab5780639cb670d114610102578063d3a32d561461012d578063f2fde38b1461015a575b600080fd5b34801561008957600080fd5b5061009261019d565b005b3480156100a057600080fd5b506100a961027a565b005b3480156100b757600080fd5b506100c061037c565b604051808273ffffffffffffffffffffffffffffffffffffffff1673ffffffffffffffffffffffffffffffffffffffff16815260200191505060405180910390f35b34801561010e57600080fd5b506101176103a1565b6040518082815260200191505060405180910390f35b34801561013957600080fd5b50610158600480360381019080803590602001909291905050506103a7565b005b34801561016657600080fd5b5061019b600480360381019080803573ffffffffffffffffffffffffffffffffffffffff16906020019092919050505061040c565b005b6000809054906101000a900473ffffffffffffffffffffffffffffffffffffffff1673ffffffffffffffffffffffffffffffffffffffff163373ffffffffffffffffffffffffffffffffffffffff161415156101f857600080fd5b600160009054906101000a900473ffffffffffffffffffffffffffffffffffffffff1673ffffffffffffffffffffffffffffffffffffffff166108fc3073ffffffffffffffffffffffffffffffffffffffff16319081150290604051600060405180830381858888f19350505050158015610277573d6000803e3d6000fd5b50565b6000809054906101000a900473ffffffffffffffffffffffffffffffffffffffff1673ffffffffffffffffffffffffffffffffffffffff163373ffffffffffffffffffffffffffffffffffffffff161415156102d557600080fd5b6000809054906101000a900473ffffffffffffffffffffffffffffffffffffffff1673ffffffffffffffffffffffffffffffffffffffff167ff8df31144d9c2f0f6b59d69b8b98abd5459d07f2742c4df920b25aae33c6482060405160405180910390a260008060006101000a81548173ffffffffffffffffffffffffffffffffffffffff021916908373ffffffffffffffffffffffffffffffffffffffff160217905550565b6000809054906101000a900473ffffffffffffffffffffffffffffffffffffffff1681565b60025481565b6000809054906101000a900473ffffffffffffffffffffffffffffffffffffffff1673ffffffffffffffffffffffffffffffffffffffff163373ffffffffffffffffffffffffffffffffffffffff1614151561040257600080fd5b8060028190555050565b6000809054906101000a900473ffffffffffffffffffffffffffffffffffffffff1673ffffffffffffffffffffffffffffffffffffffff163373ffffffffffffffffffffffffffffffffffffffff1614151561046757600080fd5b61047081610473565b50565b600073ffffffffffffffffffffffffffffffffffffffff168173ffffffffffffffffffffffffffffffffffffffff16141515156104af57600080fd5b8073ffffffffffffffffffffffffffffffffffffffff166000809054906101000a900473ffffffffffffffffffffffffffffffffffffffff1673ffffffffffffffffffffffffffffffffffffffff167f8be0079c531659141344cd1fd0a4f28419497f9722a3daafe3b4186f6b6457e060405160405180910390a3806000806101000a81548173ffffffffffffffffffffffffffffffffffffffff021916908373ffffffffffffffffffffffffffffffffffffffff160217905550505600a165627a7a72305820567f4605416576462aed67a45040914695dd453a9c10b93085c115961b28ab470029",
  "source": "pragma solidity ^0.4.23;\n\nimport \"../node_modules/openzeppelin-solidity/contracts/ownership/Ownable.sol\";\nimport \"../node_modules/openzeppelin-solidity/contracts/math/SafeMath.sol\";\n\ncontract MillionPixel is Ownable {\n    \n    \n    address internal owner;\n    uint256 public centralPixPrice;\n    address[][] pixelOwner;\n\n\n    constructor(uint256 price) public {\n        centralPixPrice = price;\n        owner = msg.sender;\n    }\n\n    function setPixPrice(uint price) public onlyOwner\n    {\n        centralPixPrice = price;\n    }\n    function pixPrice(int256 x,int256 y) internal view returns (uint256)\n    {\n        uint256 X = 0;\n        uint256 Y = 0;\n\n        if(x<=0) X = uint256(0-x);\n        if(y<=0) Y = uint256(0-x);\n        return ( centralPixPrice / (1+X*X+Y*Y) );\n    }\n\n    function getPrice(int256 x,int256 y,int256 sx,int256 sy) internal view returns(uint256)\n    {\n        int256 startY = 0;\n        int256 startX = 0;\n        int256 finalY = 0;\n        int256 finalX = 0;\n        uint256 finalPrice = 0;\n\n        if(sx>x)\n        {\n            startX = x;\n            finalX = sx;\n        }\n        else \n        {\n            startX = sx;\n            finalX = x;\n        }\n        if(sy>y)\n        {\n            startY = y;\n            finalY = sy;\n        }\n        else\n        {\n            startY = sy;\n            finalY = y;\n        } \n        for(int256 currentY = startY;currentY<finalY;currentY++)\n        {\n            for(int256 currentX = startX;currentX<finalX;currentX++)\n            {\n                finalPrice = finalPrice + pixPrice(currentX,currentY);\n            }\n        }\n        return finalPrice;            \n    }\n\n\n    function withdraw() public onlyOwner\n    {\n        owner.transfer(this.balance);\n    }\n\n\n\n    \n}",
  "sourcePath": "/home/fscucchiero/Desktop/git/SmartContract_dev/millionPixels/contracts/MillionPixel.sol",
  "compiler": {
    "name": "solc",
    "version": "0.4.24+commit.e67f0147.Emscripten.clang"
  },
  "schemaVersion": "2.0.0",
  "updatedAt": "2018-06-29T20:53:41.014Z"
}