{
  "contractName": "MillionPixel",
  "abi": [
    {
      "constant": true,
      "inputs": [
        {
          "name": "",
          "type": "address"
        }
      ],
      "name": "contributors",
      "outputs": [
        {
          "name": "",
          "type": "uint256"
        }
      ],
      "payable": false,
      "stateMutability": "view",
      "type": "function"
    },
    {
      "constant": false,
      "inputs": [],
      "name": "renounceOwnership",
      "outputs": [],
      "payable": false,
      "stateMutability": "nonpayable",
      "type": "function"
    },
    {
      "constant": true,
      "inputs": [],
      "name": "owner",
      "outputs": [
        {
          "name": "",
          "type": "address"
        }
      ],
      "payable": false,
      "stateMutability": "view",
      "type": "function"
    },
    {
      "constant": true,
      "inputs": [
        {
          "name": "",
          "type": "uint256"
        }
      ],
      "name": "Advertises",
      "outputs": [
        {
          "name": "owner",
          "type": "address"
        },
        {
          "name": "x",
          "type": "int256"
        },
        {
          "name": "y",
          "type": "int256"
        },
        {
          "name": "width",
          "type": "uint256"
        },
        {
          "name": "height",
          "type": "uint256"
        },
        {
          "name": "name",
          "type": "string"
        },
        {
          "name": "image",
          "type": "string"
        },
        {
          "name": "text",
          "type": "string"
        }
      ],
      "payable": false,
      "stateMutability": "view",
      "type": "function"
    },
    {
      "constant": false,
      "inputs": [
        {
          "name": "_newOwner",
          "type": "address"
        }
      ],
      "name": "transferOwnership",
      "outputs": [],
      "payable": false,
      "stateMutability": "nonpayable",
      "type": "function"
    },
    {
      "inputs": [],
      "payable": false,
      "stateMutability": "nonpayable",
      "type": "constructor"
    },
    {
      "anonymous": false,
      "inputs": [
        {
          "indexed": false,
          "name": "advertiseID",
          "type": "uint256"
        }
      ],
      "name": "Purchase",
      "type": "event"
    },
    {
      "anonymous": false,
      "inputs": [
        {
          "indexed": true,
          "name": "previousOwner",
          "type": "address"
        }
      ],
      "name": "OwnershipRenounced",
      "type": "event"
    },
    {
      "anonymous": false,
      "inputs": [
        {
          "indexed": true,
          "name": "previousOwner",
          "type": "address"
        },
        {
          "indexed": true,
          "name": "newOwner",
          "type": "address"
        }
      ],
      "name": "OwnershipTransferred",
      "type": "event"
    },
    {
      "constant": false,
      "inputs": [
        {
          "name": "x",
          "type": "int128"
        },
        {
          "name": "y",
          "type": "int128"
        },
        {
          "name": "width",
          "type": "uint256"
        },
        {
          "name": "height",
          "type": "uint256"
        }
      ],
      "name": "buySquare",
      "outputs": [
        {
          "name": "",
          "type": "uint256"
        }
      ],
      "payable": true,
      "stateMutability": "payable",
      "type": "function"
    },
    {
      "constant": false,
      "inputs": [
        {
          "name": "advertiseID",
          "type": "uint256"
        },
        {
          "name": "text",
          "type": "string"
        },
        {
          "name": "image",
          "type": "string"
        },
        {
          "name": "name",
          "type": "string"
        }
      ],
      "name": "modifySquare",
      "outputs": [],
      "payable": false,
      "stateMutability": "nonpayable",
      "type": "function"
    },
    {
      "constant": false,
      "inputs": [
        {
          "name": "advertiseID",
          "type": "uint256"
        },
        {
          "name": "newOwner",
          "type": "address"
        }
      ],
      "name": "changeOwner",
      "outputs": [],
      "payable": false,
      "stateMutability": "nonpayable",
      "type": "function"
    },
    {
      "constant": true,
      "inputs": [
        {
          "name": "x",
          "type": "int128"
        },
        {
          "name": "y",
          "type": "int128"
        }
      ],
      "name": "tilePrice",
      "outputs": [
        {
          "name": "",
          "type": "uint256"
        }
      ],
      "payable": false,
      "stateMutability": "pure",
      "type": "function"
    },
    {
      "constant": true,
      "inputs": [
        {
          "name": "x",
          "type": "int128"
        },
        {
          "name": "y",
          "type": "int128"
        },
        {
          "name": "width",
          "type": "uint256"
        },
        {
          "name": "height",
          "type": "uint256"
        }
      ],
      "name": "getPrice",
      "outputs": [
        {
          "name": "",
          "type": "uint256"
        }
      ],
      "payable": false,
      "stateMutability": "pure",
      "type": "function"
    },
    {
      "constant": false,
      "inputs": [],
      "name": "withdraw",
      "outputs": [],
      "payable": false,
      "stateMutability": "nonpayable",
      "type": "function"
    },
    {
      "constant": false,
      "inputs": [],
      "name": "donate",
      "outputs": [
        {
          "name": "",
          "type": "string"
        }
      ],
      "payable": true,
      "stateMutability": "payable",
      "type": "function"
    }
  ],
  "bytecode": "0x608060405234801561001057600080fd5b50336000806101000a81548173ffffffffffffffffffffffffffffffffffffffff021916908373ffffffffffffffffffffffffffffffffffffffff16021790555033600560006101000a81548173ffffffffffffffffffffffffffffffffffffffff021916908373ffffffffffffffffffffffffffffffffffffffff160217905550611341806100a16000396000f3006080604052600436106100ba576000357c0100000000000000000000000000000000000000000000000000000000900463ffffffff16806317a095c5146100bf5780631877d653146101245780631f6d4942146101755780633ccfd60b146101cc57806361f3e8ed146101e3578063715018a61461023b578063784796f7146102525780638da5cb5b1461029f57806393fa15f0146102f6578063ed88c68e146104c3578063f017cb5f14610546578063f2fde38b14610645575b600080fd5b3480156100cb57600080fd5b5061010e6004803603810190808035600f0b90602001909291908035600f0b90602001909291908035906020019092919080359060200190929190505050610688565b6040518082815260200191505060405180910390f35b34801561013057600080fd5b5061015f6004803603810190808035600f0b90602001909291908035600f0b90602001909291905050506106f0565b6040518082815260200191505060405180910390f35b34801561018157600080fd5b506101b6600480360381019080803573ffffffffffffffffffffffffffffffffffffffff169060200190929190505050610723565b6040518082815260200191505060405180910390f35b3480156101d857600080fd5b506101e161073b565b005b6102256004803603810190808035600f0b90602001909291908035600f0b90602001909291908035906020019092919080359060200190929190505050610818565b6040518082815260200191505060405180910390f35b34801561024757600080fd5b50610250610ab4565b005b34801561025e57600080fd5b5061029d60048036038101908080359060200190929190803573ffffffffffffffffffffffffffffffffffffffff169060200190929190505050610bb6565b005b3480156102ab57600080fd5b506102b4610c7d565b604051808273ffffffffffffffffffffffffffffffffffffffff1673ffffffffffffffffffffffffffffffffffffffff16815260200191505060405180910390f35b34801561030257600080fd5b5061032160048036038101908080359060200190929190505050610ca2565b604051808973ffffffffffffffffffffffffffffffffffffffff1673ffffffffffffffffffffffffffffffffffffffff168152602001888152602001878152602001868152602001858152602001806020018060200180602001848103845287818151815260200191508051906020019080838360005b838110156103b3578082015181840152602081019050610398565b50505050905090810190601f1680156103e05780820380516001836020036101000a031916815260200191505b50848103835286818151815260200191508051906020019080838360005b838110156104195780820151818401526020810190506103fe565b50505050905090810190601f1680156104465780820380516001836020036101000a031916815260200191505b50848103825285818151815260200191508051906020019080838360005b8381101561047f578082015181840152602081019050610464565b50505050905090810190601f1680156104ac5780820380516001836020036101000a031916815260200191505b509b50505050505050505050505060405180910390f35b6104cb610ee1565b6040518080602001828103825283818151815260200191508051906020019080838360005b8381101561050b5780820151818401526020810190506104f0565b50505050905090810190601f1680156105385780820380516001836020036101000a031916815260200191505b509250505060405180910390f35b34801561055257600080fd5b5061064360048036038101908080359060200190929190803590602001908201803590602001908080601f0160208091040260200160405190810160405280939291908181526020018383808284378201915050505050509192919290803590602001908201803590602001908080601f0160208091040260200160405190810160405280939291908181526020018383808284378201915050505050509192919290803590602001908201803590602001908080601f0160208091040260200160405190810160405280939291908181526020018383808284378201915050505050509192919290505050610f62565b005b34801561065157600080fd5b50610686600480360381019080803573ffffffffffffffffffffffffffffffffffffffff169060200190929190505050611033565b005b6000806000806000925086600f0b91505b8487600f0b018212156106e25787600f0b90505b8588600f0b018112156106d5576106c488886106f0565b8301925080806001019150506106ad565b8180600101925050610699565b829350505050949350505050565b600081600f0b82600f0b0283600f0b84600f0b0260010101671bc16d674ec8000081151561071a57fe5b04905092915050565b60016020528060005260406000206000915090505481565b6000809054906101000a900473ffffffffffffffffffffffffffffffffffffffff1673ffffffffffffffffffffffffffffffffffffffff163373ffffffffffffffffffffffffffffffffffffffff1614151561079657600080fd5b600560009054906101000a900473ffffffffffffffffffffffffffffffffffffffff1673ffffffffffffffffffffffffffffffffffffffff166108fc3073ffffffffffffffffffffffffffffffffffffffff16319081150290604051600060405180830381858888f19350505050158015610815573d6000803e3d6000fd5b50565b600080600080610826611194565b600089600f0b945088600f0b6080869060020a021794506108498a8a8a8a610688565b341015151561085757600080fd5b600093505b878410156108e257600092505b868310156108d5576002600086815260200190815260200160002060009054906101000a900460ff161561089c57600080fd5b60016002600087815260200190815260200160002060006101000a81548160ff0219169083151502179055508280600101935050610869565b838060010194505061085c565b610100604051908101604052803373ffffffffffffffffffffffffffffffffffffffff1681526020018b600f0b81526020018a600f0b81526020018981526020018881526020016020604051908101604052806000815250815260200160206040519081016040528060008152508152602001602060405190810160405280600081525081525091506004829080600181540180825580915050906001820390600052602060002090600802016000909192909190915060008201518160000160006101000a81548173ffffffffffffffffffffffffffffffffffffffff021916908373ffffffffffffffffffffffffffffffffffffffff1602179055506020820151816001015560408201518160020155606082015181600301556080820151816004015560a0820151816005019080519060200190610a249291906111f0565b5060c0820151816006019080519060200190610a419291906111f0565b5060e0820151816007019080519060200190610a5e9291906111f0565b5050505060016004805490500390507fe2aeb2ae0272c38a449d3cebb58f6894790a45bfb16f73a8e1761acb1e312053816040518082815260200191505060405180910390a18095505050505050949350505050565b6000809054906101000a900473ffffffffffffffffffffffffffffffffffffffff1673ffffffffffffffffffffffffffffffffffffffff163373ffffffffffffffffffffffffffffffffffffffff16141515610b0f57600080fd5b6000809054906101000a900473ffffffffffffffffffffffffffffffffffffffff1673ffffffffffffffffffffffffffffffffffffffff167ff8df31144d9c2f0f6b59d69b8b98abd5459d07f2742c4df920b25aae33c6482060405160405180910390a260008060006101000a81548173ffffffffffffffffffffffffffffffffffffffff021916908373ffffffffffffffffffffffffffffffffffffffff160217905550565b6000600483815481101515610bc757fe5b906000526020600020906008020190508060000160009054906101000a900473ffffffffffffffffffffffffffffffffffffffff1673ffffffffffffffffffffffffffffffffffffffff163373ffffffffffffffffffffffffffffffffffffffff16141515610c3557600080fd5b818160000160006101000a81548173ffffffffffffffffffffffffffffffffffffffff021916908373ffffffffffffffffffffffffffffffffffffffff160217905550505050565b6000809054906101000a900473ffffffffffffffffffffffffffffffffffffffff1681565b600481815481101515610cb157fe5b90600052602060002090600802016000915090508060000160009054906101000a900473ffffffffffffffffffffffffffffffffffffffff1690806001015490806002015490806003015490806004015490806005018054600181600116156101000203166002900480601f016020809104026020016040519081016040528092919081815260200182805460018160011615610100020316600290048015610d9b5780601f10610d7057610100808354040283529160200191610d9b565b820191906000526020600020905b815481529060010190602001808311610d7e57829003601f168201915b505050505090806006018054600181600116156101000203166002900480601f016020809104026020016040519081016040528092919081815260200182805460018160011615610100020316600290048015610e395780601f10610e0e57610100808354040283529160200191610e39565b820191906000526020600020905b815481529060010190602001808311610e1c57829003601f168201915b505050505090806007018054600181600116156101000203166002900480601f016020809104026020016040519081016040528092919081815260200182805460018160011615610100020316600290048015610ed75780601f10610eac57610100808354040283529160200191610ed7565b820191906000526020600020905b815481529060010190602001808311610eba57829003601f168201915b5050505050905088565b606034600160003373ffffffffffffffffffffffffffffffffffffffff1673ffffffffffffffffffffffffffffffffffffffff168152602001908152602001600020819055506040805190810160405280600981526020017f5468616e6b20796f750000000000000000000000000000000000000000000000815250905090565b6000600485815481101515610f7357fe5b906000526020600020906008020190508060000160009054906101000a900473ffffffffffffffffffffffffffffffffffffffff1673ffffffffffffffffffffffffffffffffffffffff163373ffffffffffffffffffffffffffffffffffffffff16141515610fe157600080fd5b83816007019080519060200190610ff9929190611270565b5082816006019080519060200190611012929190611270565b508181600501908051906020019061102b929190611270565b505050505050565b6000809054906101000a900473ffffffffffffffffffffffffffffffffffffffff1673ffffffffffffffffffffffffffffffffffffffff163373ffffffffffffffffffffffffffffffffffffffff1614151561108e57600080fd5b6110978161109a565b50565b600073ffffffffffffffffffffffffffffffffffffffff168173ffffffffffffffffffffffffffffffffffffffff16141515156110d657600080fd5b8073ffffffffffffffffffffffffffffffffffffffff166000809054906101000a900473ffffffffffffffffffffffffffffffffffffffff1673ffffffffffffffffffffffffffffffffffffffff167f8be0079c531659141344cd1fd0a4f28419497f9722a3daafe3b4186f6b6457e060405160405180910390a3806000806101000a81548173ffffffffffffffffffffffffffffffffffffffff021916908373ffffffffffffffffffffffffffffffffffffffff16021790555050565b61010060405190810160405280600073ffffffffffffffffffffffffffffffffffffffff168152602001600081526020016000815260200160008152602001600081526020016060815260200160608152602001606081525090565b828054600181600116156101000203166002900490600052602060002090601f016020900481019282601f1061123157805160ff191683800117855561125f565b8280016001018555821561125f579182015b8281111561125e578251825591602001919060010190611243565b5b50905061126c91906112f0565b5090565b828054600181600116156101000203166002900490600052602060002090601f016020900481019282601f106112b157805160ff19168380011785556112df565b828001600101855582156112df579182015b828111156112de5782518255916020019190600101906112c3565b5b5090506112ec91906112f0565b5090565b61131291905b8082111561130e5760008160009055506001016112f6565b5090565b905600a165627a7a723058202215111a690f7ae83a75a4a5e93f086d10b8ede9ac8e6ec69a9f2ee389a98a160029",
  "source": "pragma solidity ^0.4.23;\n\nimport \"../node_modules/openzeppelin-solidity/contracts/ownership/Ownable.sol\";\nimport \"../node_modules/openzeppelin-solidity/contracts/math/SafeMath.sol\";\nimport \"../node_modules/solidity-stringutils/src/strings.sol\";\n\ncontract MillionPixel is Ownable {\n    \n    using SafeMath for uint256;\n    \n    event Purchase(uint advertiseID);\n    \n    mapping (address=>uint256) public contributors;\n    mapping (int256=>bool) grid;    \n    mapping (bytes32=>address) pixelOwner;\n\n    struct AdvertisementModel\n    {\n        address owner;\n        int256 x;\n        int256 y;\n        uint256 width;\n        uint256 height;\n        string name;\n        string image;\n        string text;\n    }\n\n    AdvertisementModel[] public Advertises;\n\n    address internal owner;       \n    uint constant centralPixPrice=2000000000000000000; //2 ether\n    uint constant minSquare=10; // 10x10 pixel squares represent minimun advertisement size\n    uint constant squareDensity=100; // 100 pixels per square as 10x10 == 100\n\n    constructor() public {\n        \n        owner = msg.sender;\n    }\n    \n    function buySquare(int128 x, int128 y, uint width, uint height) public payable returns (uint256)\n    {\n        int256 ID = x;\n        ID = (ID<<128) | y;\n        \n        require(msg.value >= getPrice(x,y,width,height));\n\n        for(uint i = 0;i<width;i++) \n        {\n            for(uint j = 0;j<height;j++) \n            {\n                if (grid[ID])\n                {\n                    revert();\n                }\n                grid[ID] = true;\n            }\n        }   \n\n        AdvertisementModel memory ad = AdvertisementModel(msg.sender,x,y,width,height,\"\",\"\",\"\");\n        Advertises.push(ad);\n        uint256 advertiseID = Advertises.length-1;\n\n        emit Purchase(advertiseID);\n        return advertiseID;\n    }\n    \n    function modifySquare(uint advertiseID, string text, string image, string name) public\n    {\n        AdvertisementModel storage ad = Advertises[advertiseID];\n        require(msg.sender == ad.owner);\n        ad.text = text;\n        ad.image = image;\n        ad.name = name;      \n    }   \n    function changeOwner(uint advertiseID,address newOwner) public \n    {   \n        AdvertisementModel storage ad = Advertises[advertiseID];\n        require(msg.sender == ad.owner);\n        ad.owner = newOwner;\n    }\n    // values represented by squares so as given sx=10 means 100 pixels width\n    function tilePrice(int128 x,int128 y) public pure returns(uint256)\n    {\n        return centralPixPrice/(1+ uint(x)*uint(x) + uint(y)*uint(y) );\n    }\n    function getPrice(int128 x,int128 y,uint width,uint height) public pure returns(uint256)\n    {        \n        uint256 finalPrice = 0;\n        for(int i = y;i<y+int(height);i++)\n        {\n            for(int j = x;j<x+int(width);j++)\n            {\n                finalPrice = finalPrice + ( tilePrice(x,y));\n            }\n        }\n        return finalPrice;            \n    }\n    \n    function withdraw() public onlyOwner\n    {\n        owner.transfer(this.balance);\n    }\n\n    function donate() public payable returns(string)\n    {\n        contributors[msg.sender] = msg.value;\n        return \"Thank you\";\n    }    \n}",
  "sourcePath": "/home/fscucchiero/Desktop/git/SmartContract_dev/millionPixels/contracts/MillionPixel.sol",
  "compiler": {
    "name": "solc",
    "version": "0.4.24+commit.e67f0147.Emscripten.clang"
  },
  "schemaVersion": "2.0.0",
  "updatedAt": "2018-07-04T19:52:27.356Z"
}