{
  "contractName": "MillionPixel",
  "abi": [
    {
      "constant": true,
      "inputs": [
        {
          "name": "",
          "type": "address"
        }
      ],
      "name": "contributors",
      "outputs": [
        {
          "name": "",
          "type": "uint256"
        }
      ],
      "payable": false,
      "stateMutability": "view",
      "type": "function"
    },
    {
      "constant": false,
      "inputs": [],
      "name": "renounceOwnership",
      "outputs": [],
      "payable": false,
      "stateMutability": "nonpayable",
      "type": "function"
    },
    {
      "constant": true,
      "inputs": [],
      "name": "owner",
      "outputs": [
        {
          "name": "",
          "type": "address"
        }
      ],
      "payable": false,
      "stateMutability": "view",
      "type": "function"
    },
    {
      "constant": true,
      "inputs": [
        {
          "name": "",
          "type": "uint256"
        }
      ],
      "name": "Advertises",
      "outputs": [
        {
          "name": "owner",
          "type": "address"
        },
        {
          "name": "x",
          "type": "uint256"
        },
        {
          "name": "y",
          "type": "uint256"
        },
        {
          "name": "width",
          "type": "uint256"
        },
        {
          "name": "height",
          "type": "uint256"
        },
        {
          "name": "name",
          "type": "string"
        },
        {
          "name": "image",
          "type": "string"
        },
        {
          "name": "text",
          "type": "string"
        }
      ],
      "payable": false,
      "stateMutability": "view",
      "type": "function"
    },
    {
      "constant": false,
      "inputs": [
        {
          "name": "_newOwner",
          "type": "address"
        }
      ],
      "name": "transferOwnership",
      "outputs": [],
      "payable": false,
      "stateMutability": "nonpayable",
      "type": "function"
    },
    {
      "inputs": [],
      "payable": false,
      "stateMutability": "nonpayable",
      "type": "constructor"
    },
    {
      "anonymous": false,
      "inputs": [
        {
          "indexed": false,
          "name": "advertiseID",
          "type": "uint256"
        }
      ],
      "name": "Purchase",
      "type": "event"
    },
    {
      "anonymous": false,
      "inputs": [
        {
          "indexed": true,
          "name": "previousOwner",
          "type": "address"
        }
      ],
      "name": "OwnershipRenounced",
      "type": "event"
    },
    {
      "anonymous": false,
      "inputs": [
        {
          "indexed": true,
          "name": "previousOwner",
          "type": "address"
        },
        {
          "indexed": true,
          "name": "newOwner",
          "type": "address"
        }
      ],
      "name": "OwnershipTransferred",
      "type": "event"
    },
    {
      "constant": false,
      "inputs": [
        {
          "name": "x",
          "type": "uint128"
        },
        {
          "name": "y",
          "type": "uint128"
        },
        {
          "name": "width",
          "type": "uint256"
        },
        {
          "name": "height",
          "type": "uint256"
        }
      ],
      "name": "buySquare",
      "outputs": [
        {
          "name": "",
          "type": "uint256"
        }
      ],
      "payable": true,
      "stateMutability": "payable",
      "type": "function"
    },
    {
      "constant": false,
      "inputs": [
        {
          "name": "advertiseID",
          "type": "uint256"
        },
        {
          "name": "text",
          "type": "string"
        },
        {
          "name": "image",
          "type": "string"
        },
        {
          "name": "name",
          "type": "string"
        }
      ],
      "name": "modifySquare",
      "outputs": [],
      "payable": false,
      "stateMutability": "nonpayable",
      "type": "function"
    },
    {
      "constant": false,
      "inputs": [],
      "name": "withdraw",
      "outputs": [],
      "payable": false,
      "stateMutability": "nonpayable",
      "type": "function"
    },
    {
      "constant": false,
      "inputs": [],
      "name": "donate",
      "outputs": [
        {
          "name": "",
          "type": "string"
        }
      ],
      "payable": true,
      "stateMutability": "payable",
      "type": "function"
    }
  ],
  "bytecode": "0x608060405234801561001057600080fd5b50336000806101000a81548173ffffffffffffffffffffffffffffffffffffffff021916908373ffffffffffffffffffffffffffffffffffffffff16021790555033600560006101000a81548173ffffffffffffffffffffffffffffffffffffffff021916908373ffffffffffffffffffffffffffffffffffffffff16021790555061112c806100a16000396000f300608060405260043610610099576000357c0100000000000000000000000000000000000000000000000000000000900463ffffffff1680631f6d49421461009e5780633ccfd60b146100f5578063715018a61461010c57806380ac0ab7146101235780638da5cb5b1461019957806393fa15f0146101f0578063ed88c68e146103bd578063f017cb5f14610440578063f2fde38b1461053f575b600080fd5b3480156100aa57600080fd5b506100df600480360381019080803573ffffffffffffffffffffffffffffffffffffffff169060200190929190505050610582565b6040518082815260200191505060405180910390f35b34801561010157600080fd5b5061010a61059a565b005b34801561011857600080fd5b50610121610677565b005b61018360048036038101908080356fffffffffffffffffffffffffffffffff16906020019092919080356fffffffffffffffffffffffffffffffff1690602001909291908035906020019092919080359060200190929190505050610779565b6040518082815260200191505060405180910390f35b3480156101a557600080fd5b506101ae610a4f565b604051808273ffffffffffffffffffffffffffffffffffffffff1673ffffffffffffffffffffffffffffffffffffffff16815260200191505060405180910390f35b3480156101fc57600080fd5b5061021b60048036038101908080359060200190929190505050610a74565b604051808973ffffffffffffffffffffffffffffffffffffffff1673ffffffffffffffffffffffffffffffffffffffff168152602001888152602001878152602001868152602001858152602001806020018060200180602001848103845287818151815260200191508051906020019080838360005b838110156102ad578082015181840152602081019050610292565b50505050905090810190601f1680156102da5780820380516001836020036101000a031916815260200191505b50848103835286818151815260200191508051906020019080838360005b838110156103135780820151818401526020810190506102f8565b50505050905090810190601f1680156103405780820380516001836020036101000a031916815260200191505b50848103825285818151815260200191508051906020019080838360005b8381101561037957808201518184015260208101905061035e565b50505050905090810190601f1680156103a65780820380516001836020036101000a031916815260200191505b509b50505050505050505050505060405180910390f35b6103c5610cb3565b6040518080602001828103825283818151815260200191508051906020019080838360005b838110156104055780820151818401526020810190506103ea565b50505050905090810190601f1680156104325780820380516001836020036101000a031916815260200191505b509250505060405180910390f35b34801561044c57600080fd5b5061053d60048036038101908080359060200190929190803590602001908201803590602001908080601f0160208091040260200160405190810160405280939291908181526020018383808284378201915050505050509192919290803590602001908201803590602001908080601f0160208091040260200160405190810160405280939291908181526020018383808284378201915050505050509192919290803590602001908201803590602001908080601f0160208091040260200160405190810160405280939291908181526020018383808284378201915050505050509192919290505050610d34565b005b34801561054b57600080fd5b50610580600480360381019080803573ffffffffffffffffffffffffffffffffffffffff169060200190929190505050610e05565b005b60016020528060005260406000206000915090505481565b6000809054906101000a900473ffffffffffffffffffffffffffffffffffffffff1673ffffffffffffffffffffffffffffffffffffffff163373ffffffffffffffffffffffffffffffffffffffff161415156105f557600080fd5b600560009054906101000a900473ffffffffffffffffffffffffffffffffffffffff1673ffffffffffffffffffffffffffffffffffffffff166108fc3073ffffffffffffffffffffffffffffffffffffffff16319081150290604051600060405180830381858888f19350505050158015610674573d6000803e3d6000fd5b50565b6000809054906101000a900473ffffffffffffffffffffffffffffffffffffffff1673ffffffffffffffffffffffffffffffffffffffff163373ffffffffffffffffffffffffffffffffffffffff161415156106d257600080fd5b6000809054906101000a900473ffffffffffffffffffffffffffffffffffffffff1673ffffffffffffffffffffffffffffffffffffffff167ff8df31144d9c2f0f6b59d69b8b98abd5459d07f2742c4df920b25aae33c6482060405160405180910390a260008060006101000a81548173ffffffffffffffffffffffffffffffffffffffff021916908373ffffffffffffffffffffffffffffffffffffffff160217905550565b600080600080610787610f7f565b6000896fffffffffffffffffffffffffffffffff169450886fffffffffffffffffffffffffffffffff166080869060020a021794506107c68888610e6c565b34101515156107d457600080fd5b600093505b8784101561085f57600092505b86831015610852576002600086815260200190815260200160002060009054906101000a900460ff161561081957600080fd5b60016002600087815260200190815260200160002060006101000a81548160ff02191690831515021790555082806001019350506107e6565b83806001019450506107d9565b610100604051908101604052803373ffffffffffffffffffffffffffffffffffffffff1681526020018b6fffffffffffffffffffffffffffffffff1681526020018a6fffffffffffffffffffffffffffffffff1681526020018981526020018881526020016020604051908101604052806000815250815260200160206040519081016040528060008152508152602001602060405190810160405280600081525081525091506004829080600181540180825580915050906001820390600052602060002090600802016000909192909190915060008201518160000160006101000a81548173ffffffffffffffffffffffffffffffffffffffff021916908373ffffffffffffffffffffffffffffffffffffffff1602179055506020820151816001015560408201518160020155606082015181600301556080820151816004015560a08201518160050190805190602001906109bf929190610fdb565b5060c08201518160060190805190602001906109dc929190610fdb565b5060e08201518160070190805190602001906109f9929190610fdb565b5050505060016004805490500390507fe2aeb2ae0272c38a449d3cebb58f6894790a45bfb16f73a8e1761acb1e312053816040518082815260200191505060405180910390a18095505050505050949350505050565b6000809054906101000a900473ffffffffffffffffffffffffffffffffffffffff1681565b600481815481101515610a8357fe5b90600052602060002090600802016000915090508060000160009054906101000a900473ffffffffffffffffffffffffffffffffffffffff1690806001015490806002015490806003015490806004015490806005018054600181600116156101000203166002900480601f016020809104026020016040519081016040528092919081815260200182805460018160011615610100020316600290048015610b6d5780601f10610b4257610100808354040283529160200191610b6d565b820191906000526020600020905b815481529060010190602001808311610b5057829003601f168201915b505050505090806006018054600181600116156101000203166002900480601f016020809104026020016040519081016040528092919081815260200182805460018160011615610100020316600290048015610c0b5780601f10610be057610100808354040283529160200191610c0b565b820191906000526020600020905b815481529060010190602001808311610bee57829003601f168201915b505050505090806007018054600181600116156101000203166002900480601f016020809104026020016040519081016040528092919081815260200182805460018160011615610100020316600290048015610ca95780601f10610c7e57610100808354040283529160200191610ca9565b820191906000526020600020905b815481529060010190602001808311610c8c57829003601f168201915b5050505050905088565b606034600160003373ffffffffffffffffffffffffffffffffffffffff1673ffffffffffffffffffffffffffffffffffffffff168152602001908152602001600020819055506040805190810160405280600981526020017f5468616e6b20796f750000000000000000000000000000000000000000000000815250905090565b6000600485815481101515610d4557fe5b906000526020600020906008020190508060000160009054906101000a900473ffffffffffffffffffffffffffffffffffffffff1673ffffffffffffffffffffffffffffffffffffffff163373ffffffffffffffffffffffffffffffffffffffff16141515610db357600080fd5b83816007019080519060200190610dcb92919061105b565b5082816006019080519060200190610de492919061105b565b5081816005019080519060200190610dfd92919061105b565b505050505050565b6000809054906101000a900473ffffffffffffffffffffffffffffffffffffffff1673ffffffffffffffffffffffffffffffffffffffff163373ffffffffffffffffffffffffffffffffffffffff16141515610e6057600080fd5b610e6981610e85565b50565b600066071afd498d000060648385020202905092915050565b600073ffffffffffffffffffffffffffffffffffffffff168173ffffffffffffffffffffffffffffffffffffffff1614151515610ec157600080fd5b8073ffffffffffffffffffffffffffffffffffffffff166000809054906101000a900473ffffffffffffffffffffffffffffffffffffffff1673ffffffffffffffffffffffffffffffffffffffff167f8be0079c531659141344cd1fd0a4f28419497f9722a3daafe3b4186f6b6457e060405160405180910390a3806000806101000a81548173ffffffffffffffffffffffffffffffffffffffff021916908373ffffffffffffffffffffffffffffffffffffffff16021790555050565b61010060405190810160405280600073ffffffffffffffffffffffffffffffffffffffff168152602001600081526020016000815260200160008152602001600081526020016060815260200160608152602001606081525090565b828054600181600116156101000203166002900490600052602060002090601f016020900481019282601f1061101c57805160ff191683800117855561104a565b8280016001018555821561104a579182015b8281111561104957825182559160200191906001019061102e565b5b50905061105791906110db565b5090565b828054600181600116156101000203166002900490600052602060002090601f016020900481019282601f1061109c57805160ff19168380011785556110ca565b828001600101855582156110ca579182015b828111156110c95782518255916020019190600101906110ae565b5b5090506110d791906110db565b5090565b6110fd91905b808211156110f95760008160009055506001016110e1565b5090565b905600a165627a7a72305820c031ecc2376ebd868fb877ffbcfc37e38401f838b024daa8814ec6056973c1a00029",
  "source": "pragma solidity ^0.4.23;\n\nimport \"../node_modules/openzeppelin-solidity/contracts/ownership/Ownable.sol\";\nimport \"../node_modules/openzeppelin-solidity/contracts/math/SafeMath.sol\";\nimport \"../node_modules/solidity-stringutils/src/strings.sol\";\n\ncontract MillionPixel is Ownable {\n    \n    using SafeMath for uint256;\n    \n    event Purchase(uint advertiseID);\n    \n    mapping (address=>uint256) public contributors;\n    mapping (uint256=>bool) grid;    \n    mapping (bytes32=>address) pixelOwner;\n\n    struct AdvertisementModel\n    {\n        address owner;\n        uint256 x;\n        uint256 y;\n        uint256 width;\n        uint256 height;\n        string name;\n        string image;\n        string text;\n    }\n\n    AdvertisementModel[] public Advertises;\n\n    address internal owner;\n    uint constant pixPrice=2000000000000000; //0.002 ether\n    uint constant minSquare=10; // 10x10 pixel squares represent minimun advertisement size\n    uint constant squareDensity=100; // 100 pixels per square as 10x10 == 100\n\n    constructor() public {\n        \n        owner = msg.sender;\n    }\n    \n    function buySquare(uint128 x, uint128 y, uint width, uint height) public payable returns (uint256)\n    {\n        uint256 ID = x;\n        ID = (ID<<128) | y;\n        \n        require(msg.value >= getPrice(width,height));\n\n        for(uint i = 0;i<width;i++) \n        {\n            for(uint j = 0;j<height;j++) \n            {\n                if (grid[ID]) \n                {\n                    // Already taken, undo.\n                    revert();\n                }\n                grid[ID] = true;\n            }\n        }   \n\n        AdvertisementModel memory ad = AdvertisementModel(msg.sender,x,y,width,height,\"\",\"\",\"\");\n        Advertises.push(ad);\n        uint256 advertiseID = Advertises.length-1;\n\n        emit Purchase(advertiseID);\n        return advertiseID;\n    }\n    \n    function modifySquare(uint advertiseID, string text, string image, string name) public\n    {\n        AdvertisementModel storage ad = Advertises[advertiseID];\n        require(msg.sender == ad.owner);\n        ad.text = text;\n        ad.image = image;\n        ad.name = name;      \n    }   \n    \n    // values represented by squares so as given sx=10 means 100 pixels width\n    function getPrice(uint sx,uint sy) internal pure returns(uint256)\n    {        \n        return sx*sy*squareDensity*pixPrice;            \n    }\n    \n    function withdraw() public onlyOwner\n    {\n        owner.transfer(this.balance);\n    }\n\n    function donate() public payable returns(string)\n    {\n        contributors[msg.sender] = msg.value;\n        return \"Thank you\";\n    }    \n}",
  "sourcePath": "/home/fscucchiero/Desktop/git/SmartContract_dev/millionPixels/contracts/MillionPixel.sol",
  "compiler": {
    "name": "solc",
    "version": "0.4.24+commit.e67f0147.Emscripten.clang"
  },
  "schemaVersion": "2.0.0",
  "updatedAt": "2018-07-03T20:24:01.831Z"
}