{
  "contractName": "MillionPixel",
  "abi": [
    {
      "constant": true,
      "inputs": [
        {
          "name": "",
          "type": "uint256"
        },
        {
          "name": "",
          "type": "uint256"
        }
      ],
      "name": "grid",
      "outputs": [
        {
          "name": "",
          "type": "bool"
        }
      ],
      "payable": false,
      "stateMutability": "view",
      "type": "function"
    },
    {
      "constant": false,
      "inputs": [],
      "name": "renounceOwnership",
      "outputs": [],
      "payable": false,
      "stateMutability": "nonpayable",
      "type": "function"
    },
    {
      "constant": true,
      "inputs": [],
      "name": "owner",
      "outputs": [
        {
          "name": "",
          "type": "address"
        }
      ],
      "payable": false,
      "stateMutability": "view",
      "type": "function"
    },
    {
      "constant": true,
      "inputs": [
        {
          "name": "",
          "type": "uint256"
        }
      ],
      "name": "Advertises",
      "outputs": [
        {
          "name": "owner",
          "type": "address"
        },
        {
          "name": "x",
          "type": "uint256"
        },
        {
          "name": "y",
          "type": "uint256"
        },
        {
          "name": "width",
          "type": "uint256"
        },
        {
          "name": "height",
          "type": "uint256"
        },
        {
          "name": "name",
          "type": "string"
        },
        {
          "name": "image",
          "type": "string"
        },
        {
          "name": "text",
          "type": "string"
        }
      ],
      "payable": false,
      "stateMutability": "view",
      "type": "function"
    },
    {
      "constant": false,
      "inputs": [
        {
          "name": "_newOwner",
          "type": "address"
        }
      ],
      "name": "transferOwnership",
      "outputs": [],
      "payable": false,
      "stateMutability": "nonpayable",
      "type": "function"
    },
    {
      "inputs": [],
      "payable": false,
      "stateMutability": "nonpayable",
      "type": "constructor"
    },
    {
      "anonymous": false,
      "inputs": [
        {
          "indexed": true,
          "name": "previousOwner",
          "type": "address"
        }
      ],
      "name": "OwnershipRenounced",
      "type": "event"
    },
    {
      "anonymous": false,
      "inputs": [
        {
          "indexed": true,
          "name": "previousOwner",
          "type": "address"
        },
        {
          "indexed": true,
          "name": "newOwner",
          "type": "address"
        }
      ],
      "name": "OwnershipTransferred",
      "type": "event"
    },
    {
      "constant": false,
      "inputs": [
        {
          "name": "x",
          "type": "uint256"
        },
        {
          "name": "y",
          "type": "uint256"
        },
        {
          "name": "width",
          "type": "uint256"
        },
        {
          "name": "height",
          "type": "uint256"
        }
      ],
      "name": "buySquare",
      "outputs": [
        {
          "name": "",
          "type": "uint256"
        }
      ],
      "payable": true,
      "stateMutability": "payable",
      "type": "function"
    },
    {
      "constant": false,
      "inputs": [
        {
          "name": "advertiseID",
          "type": "uint256"
        },
        {
          "name": "text",
          "type": "string"
        },
        {
          "name": "image",
          "type": "string"
        },
        {
          "name": "name",
          "type": "string"
        }
      ],
      "name": "modifySquare",
      "outputs": [],
      "payable": false,
      "stateMutability": "nonpayable",
      "type": "function"
    },
    {
      "constant": true,
      "inputs": [
        {
          "name": "sx",
          "type": "uint256"
        },
        {
          "name": "sy",
          "type": "uint256"
        }
      ],
      "name": "getPrice",
      "outputs": [
        {
          "name": "",
          "type": "uint256"
        }
      ],
      "payable": false,
      "stateMutability": "pure",
      "type": "function"
    },
    {
      "constant": false,
      "inputs": [],
      "name": "withdraw",
      "outputs": [],
      "payable": false,
      "stateMutability": "nonpayable",
      "type": "function"
    },
    {
      "constant": false,
      "inputs": [],
      "name": "donate",
      "outputs": [
        {
          "name": "",
          "type": "string"
        }
      ],
      "payable": true,
      "stateMutability": "payable",
      "type": "function"
    }
  ],
  "bytecode": "0x608060405234801561001057600080fd5b50336000806101000a81548173ffffffffffffffffffffffffffffffffffffffff021916908373ffffffffffffffffffffffffffffffffffffffff16021790555033600160006101000a81548173ffffffffffffffffffffffffffffffffffffffff021916908373ffffffffffffffffffffffffffffffffffffffff1602179055506110d2806100a16000396000f3006080604052600436106100a4576000357c0100000000000000000000000000000000000000000000000000000000900463ffffffff168063146008e3146100a95780633ccfd60b146100f857806355d7f6fe1461010f5780635cf4ee9114610161578063715018a6146101ac5780638da5cb5b146101c357806393fa15f01461021a578063ed88c68e146103e7578063f017cb5f1461046a578063f2fde38b14610569575b600080fd5b3480156100b557600080fd5b506100de60048036038101908080359060200190929190803590602001909291905050506105ac565b604051808215151515815260200191505060405180910390f35b34801561010457600080fd5b5061010d6105e9565b005b61014b600480360381019080803590602001909291908035906020019092919080359060200190929190803590602001909291905050506106c6565b6040518082815260200191505060405180910390f35b34801561016d57600080fd5b506101966004803603810190808035906020019092919080359060200190929190505050610937565b6040518082815260200191505060405180910390f35b3480156101b857600080fd5b506101c1610950565b005b3480156101cf57600080fd5b506101d8610a52565b604051808273ffffffffffffffffffffffffffffffffffffffff1673ffffffffffffffffffffffffffffffffffffffff16815260200191505060405180910390f35b34801561022657600080fd5b5061024560048036038101908080359060200190929190505050610a77565b604051808973ffffffffffffffffffffffffffffffffffffffff1673ffffffffffffffffffffffffffffffffffffffff168152602001888152602001878152602001868152602001858152602001806020018060200180602001848103845287818151815260200191508051906020019080838360005b838110156102d75780820151818401526020810190506102bc565b50505050905090810190601f1680156103045780820380516001836020036101000a031916815260200191505b50848103835286818151815260200191508051906020019080838360005b8381101561033d578082015181840152602081019050610322565b50505050905090810190601f16801561036a5780820380516001836020036101000a031916815260200191505b50848103825285818151815260200191508051906020019080838360005b838110156103a3578082015181840152602081019050610388565b50505050905090810190601f1680156103d05780820380516001836020036101000a031916815260200191505b509b50505050505050505050505060405180910390f35b6103ef610cb6565b6040518080602001828103825283818151815260200191508051906020019080838360005b8381101561042f578082015181840152602081019050610414565b50505050905090810190601f16801561045c5780820380516001836020036101000a031916815260200191505b509250505060405180910390f35b34801561047657600080fd5b5061056760048036038101908080359060200190929190803590602001908201803590602001908080601f0160208091040260200160405190810160405280939291908181526020018383808284378201915050505050509192919290803590602001908201803590602001908080601f0160208091040260200160405190810160405280939291908181526020018383808284378201915050505050509192919290803590602001908201803590602001908080601f0160208091040260200160405190810160405280939291908181526020018383808284378201915050505050509192919290505050610cf3565b005b34801561057557600080fd5b506105aa600480360381019080803573ffffffffffffffffffffffffffffffffffffffff169060200190929190505050610dc4565b005b6003826064811015156105bb57fe5b60040201816064811015156105cc57fe5b60209182820401919006915091509054906101000a900460ff1681565b6000809054906101000a900473ffffffffffffffffffffffffffffffffffffffff1673ffffffffffffffffffffffffffffffffffffffff163373ffffffffffffffffffffffffffffffffffffffff1614151561064457600080fd5b600160009054906101000a900473ffffffffffffffffffffffffffffffffffffffff1673ffffffffffffffffffffffffffffffffffffffff166108fc3073ffffffffffffffffffffffffffffffffffffffff16319081150290604051600060405180830381858888f193505050501580156106c3573d6000803e3d6000fd5b50565b60008060006106d3610f25565b60006106df8787610937565b34101515156106ed57600080fd5b600093505b868410156107aa57600092505b8583101561079d576003848a0160648110151561071857fe5b6004020183890160648110151561072b57fe5b602091828204019190069054906101000a900460ff161561074b57600080fd5b60016003858b0160648110151561075e57fe5b60040201848a0160648110151561077157fe5b602091828204019190066101000a81548160ff02191690831515021790555082806001019350506106ff565b83806001019450506106f2565b610100604051908101604052803373ffffffffffffffffffffffffffffffffffffffff1681526020018a815260200189815260200188815260200187815260200160206040519081016040528060008152508152602001602060405190810160405280600081525081526020016020604051908101604052806000815250815250915060016002839080600181540180825580915050906001820390600052602060002090600802016000909192909190915060008201518160000160006101000a81548173ffffffffffffffffffffffffffffffffffffffff021916908373ffffffffffffffffffffffffffffffffffffffff1602179055506020820151816001015560408201518160020155606082015181600301556080820151816004015560a08201518160050190805190602001906108e8929190610f81565b5060c0820151816006019080519060200190610905929190610f81565b5060e0820151816007019080519060200190610922929190610f81565b50505003905080945050505050949350505050565b600066071afd498d000060648385020202905092915050565b6000809054906101000a900473ffffffffffffffffffffffffffffffffffffffff1673ffffffffffffffffffffffffffffffffffffffff163373ffffffffffffffffffffffffffffffffffffffff161415156109ab57600080fd5b6000809054906101000a900473ffffffffffffffffffffffffffffffffffffffff1673ffffffffffffffffffffffffffffffffffffffff167ff8df31144d9c2f0f6b59d69b8b98abd5459d07f2742c4df920b25aae33c6482060405160405180910390a260008060006101000a81548173ffffffffffffffffffffffffffffffffffffffff021916908373ffffffffffffffffffffffffffffffffffffffff160217905550565b6000809054906101000a900473ffffffffffffffffffffffffffffffffffffffff1681565b600281815481101515610a8657fe5b90600052602060002090600802016000915090508060000160009054906101000a900473ffffffffffffffffffffffffffffffffffffffff1690806001015490806002015490806003015490806004015490806005018054600181600116156101000203166002900480601f016020809104026020016040519081016040528092919081815260200182805460018160011615610100020316600290048015610b705780601f10610b4557610100808354040283529160200191610b70565b820191906000526020600020905b815481529060010190602001808311610b5357829003601f168201915b505050505090806006018054600181600116156101000203166002900480601f016020809104026020016040519081016040528092919081815260200182805460018160011615610100020316600290048015610c0e5780601f10610be357610100808354040283529160200191610c0e565b820191906000526020600020905b815481529060010190602001808311610bf157829003601f168201915b505050505090806007018054600181600116156101000203166002900480601f016020809104026020016040519081016040528092919081815260200182805460018160011615610100020316600290048015610cac5780601f10610c8157610100808354040283529160200191610cac565b820191906000526020600020905b815481529060010190602001808311610c8f57829003601f168201915b5050505050905088565b60606040805190810160405280600981526020017f5468616e6b20796f750000000000000000000000000000000000000000000000815250905090565b6000600285815481101515610d0457fe5b906000526020600020906008020190508060000160009054906101000a900473ffffffffffffffffffffffffffffffffffffffff1673ffffffffffffffffffffffffffffffffffffffff163373ffffffffffffffffffffffffffffffffffffffff16141515610d7257600080fd5b83816007019080519060200190610d8a929190611001565b5082816006019080519060200190610da3929190611001565b5081816005019080519060200190610dbc929190611001565b505050505050565b6000809054906101000a900473ffffffffffffffffffffffffffffffffffffffff1673ffffffffffffffffffffffffffffffffffffffff163373ffffffffffffffffffffffffffffffffffffffff16141515610e1f57600080fd5b610e2881610e2b565b50565b600073ffffffffffffffffffffffffffffffffffffffff168173ffffffffffffffffffffffffffffffffffffffff1614151515610e6757600080fd5b8073ffffffffffffffffffffffffffffffffffffffff166000809054906101000a900473ffffffffffffffffffffffffffffffffffffffff1673ffffffffffffffffffffffffffffffffffffffff167f8be0079c531659141344cd1fd0a4f28419497f9722a3daafe3b4186f6b6457e060405160405180910390a3806000806101000a81548173ffffffffffffffffffffffffffffffffffffffff021916908373ffffffffffffffffffffffffffffffffffffffff16021790555050565b61010060405190810160405280600073ffffffffffffffffffffffffffffffffffffffff168152602001600081526020016000815260200160008152602001600081526020016060815260200160608152602001606081525090565b828054600181600116156101000203166002900490600052602060002090601f016020900481019282601f10610fc257805160ff1916838001178555610ff0565b82800160010185558215610ff0579182015b82811115610fef578251825591602001919060010190610fd4565b5b509050610ffd9190611081565b5090565b828054600181600116156101000203166002900490600052602060002090601f016020900481019282601f1061104257805160ff1916838001178555611070565b82800160010185558215611070579182015b8281111561106f578251825591602001919060010190611054565b5b50905061107d9190611081565b5090565b6110a391905b8082111561109f576000816000905550600101611087565b5090565b905600a165627a7a7230582076be6c2cf0238d2fc9407cac2b8fcfa2653726364b460e24764b2e8b634826440029",
  "source": "pragma solidity ^0.4.23;\n\nimport \"../node_modules/openzeppelin-solidity/contracts/ownership/Ownable.sol\";\nimport \"../node_modules/openzeppelin-solidity/contracts/math/SafeMath.sol\";\nimport \"../node_modules/solidity-stringutils/src/strings.sol\";\n\ncontract MillionPixel is Ownable {\n    \n    using SafeMath for uint256;\n    using strings for *;\n    \n    address internal owner;\n    uint constant pixPrice=2000000000000000; //0.002 ether\n    uint constant minSquare=10; // 10x10 pixel squares represent minimun advertisement size\n    uint constant squareDensity=100; // 100 pixels per square as 10x10 == 100\n     \n    struct AdvertisementModel\n    {\n        address owner;\n        uint256 x;\n        uint256 y;\n        uint256 width;\n        uint256 height;\n        string name;\n        string image;\n        string text;\n    }\n\n    AdvertisementModel[] public Advertises;\n    \n    bool[100][100] public grid;\n    \n    mapping (bytes32=>address) pixelOwner;\n\n\n    constructor() public {\n        \n        owner = msg.sender;\n    }\n\n    function buySquare(uint x, uint y, uint width, uint height) public payable returns (uint)\n    {\n        require(msg.value >= getPrice(width,height));\n//0x55d7f6fe0000000000000000000000000000000000000000000000000000000000000000000000000000000000000000000000000000000000000000000000000000000000000000000000000000000000000000000000000000000000000000000000010000000000000000000000000000000000000000000000000000000000000001\n        for(uint i = 0;i<width;i++) \n        {\n            for(uint j = 0;j<height;j++) \n            {\n                if (grid[x+i][y+j]) \n                {\n                    // Already taken, undo.\n                    revert();\n                }\n                grid[x+i][y+j] = true;\n            }\n        }   \n        AdvertisementModel memory ad = AdvertisementModel(msg.sender,x,y,width,height,\"\",\"\",\"\");\n        uint advertiseID = Advertises.push(ad)-1;\n        return advertiseID;\n    }\n    \n    function modifySquare(uint advertiseID, string text, string image, string name) public\n    {\n        AdvertisementModel storage ad = Advertises[advertiseID];\n        require(msg.sender == ad.owner);\n        ad.text = text;\n        ad.image = image;\n        ad.name = name;      \n    }   \n\n    // values represented by squares so as given sx=10 means 100 pixels width\n    function getPrice(uint sx,uint sy) public pure returns(uint256)\n    {        \n        return sx*sy*squareDensity*pixPrice;            \n    }\n    \n    function withdraw() public onlyOwner\n    {\n        owner.transfer(this.balance);\n    }\n    function donate() public payable returns(string)\n    {\n        return \"Thank you\";\n    }    \n}",
  "sourcePath": "/home/fscucchiero/Desktop/git/SmartContract_dev/millionPixels/contracts/MillionPixel.sol",
  "compiler": {
    "name": "solc",
    "version": "0.4.24+commit.e67f0147.Emscripten.clang"
  },
  "schemaVersion": "2.0.0",
  "updatedAt": "2018-07-02T21:51:55.489Z"
}