{
  "contractName": "calee",
  "abi": [
    {
      "constant": true,
      "inputs": [],
      "name": "answer4",
      "outputs": [
        {
          "name": "",
          "type": "bytes32"
        }
      ],
      "payable": false,
      "stateMutability": "view",
      "type": "function"
    },
    {
      "constant": true,
      "inputs": [],
      "name": "answer3",
      "outputs": [
        {
          "name": "",
          "type": "uint256"
        }
      ],
      "payable": false,
      "stateMutability": "view",
      "type": "function"
    },
    {
      "constant": true,
      "inputs": [],
      "name": "answer2",
      "outputs": [
        {
          "name": "",
          "type": "bytes32"
        }
      ],
      "payable": false,
      "stateMutability": "view",
      "type": "function"
    },
    {
      "constant": true,
      "inputs": [],
      "name": "answer1",
      "outputs": [
        {
          "name": "",
          "type": "uint8"
        }
      ],
      "payable": false,
      "stateMutability": "view",
      "type": "function"
    },
    {
      "constant": true,
      "inputs": [],
      "name": "answer5",
      "outputs": [
        {
          "name": "",
          "type": "uint256"
        }
      ],
      "payable": false,
      "stateMutability": "view",
      "type": "function"
    },
    {
      "inputs": [],
      "payable": false,
      "stateMutability": "nonpayable",
      "type": "constructor"
    },
    {
      "constant": false,
      "inputs": [],
      "name": "guess",
      "outputs": [],
      "payable": false,
      "stateMutability": "nonpayable",
      "type": "function"
    }
  ],
  "bytecode": "0x608060405234801561001057600080fd5b50600143034042604051808360001916600019168152602001828152602001925050506040518091039020600190046000806101000a81548160ff021916908360ff160217905550600143034042604051808360001916600019168152602001828152602001925050506040518091039020600181600019169055504260028190555060014303406003816000191690555043600481905550610271806100b86000396000f300608060405260043610610078576000357c0100000000000000000000000000000000000000000000000000000000900463ffffffff1680633cbc034b1461007d57806369e72f8d146100b05780637774d438146100db578063a28b749a1461010e578063be90c65714610125578063e26085e314610156575b600080fd5b34801561008957600080fd5b50610092610181565b60405180826000191660001916815260200191505060405180910390f35b3480156100bc57600080fd5b506100c5610187565b6040518082815260200191505060405180910390f35b3480156100e757600080fd5b506100f061018d565b60405180826000191660001916815260200191505060405180910390f35b34801561011a57600080fd5b50610123610193565b005b34801561013157600080fd5b5061013a61022d565b604051808260ff1660ff16815260200191505060405180910390f35b34801561016257600080fd5b5061016b61023f565b6040518082815260200191505060405180910390f35b60035481565b60025481565b60015481565b600143034042604051808360001916600019168152602001828152602001925050506040518091039020600190046000806101000a81548160ff021916908360ff160217905550600143034042604051808360001916600019168152602001828152602001925050506040518091039020600181600019169055504260028190555060014303406003816000191690555043600481905550565b6000809054906101000a900460ff1681565b600454815600a165627a7a723058201d58111ab0ef4e1ef439fdebd870c92c66a37dbe4ccfdcf0b6b82190e9ffb20e0029",
  "source": "pragma solidity ^0.4.23;\n\ncontract calee {\n    uint8 public answer1;\n    bytes32 public answer2;\n    uint public answer3;\n    bytes32 public answer4;\n    uint public answer5;\n\n    constructor() public {\n        answer1 = uint8(keccak256(block.blockhash(block.number - 1), now));\n        answer2 = keccak256(block.blockhash(block.number - 1), now);\n        answer3 = now;\n        answer4 = block.blockhash(block.number - 1);\n        answer5 = block.number;\n    }\n    \n    function guess() public {\n        answer1 = uint8(keccak256(block.blockhash(block.number - 1), now));\n        answer2 = keccak256(block.blockhash(block.number - 1), now);\n        answer3 = now;\n        answer4 = block.blockhash(block.number - 1);\n        answer5 = block.number;\n    }\n}\n",
  "sourcePath": "/home/fscucchiero/Desktop/git/SmartContract_dev/pruebas/contracts/calee.sol",
  "compiler": {
    "name": "solc",
    "version": "0.4.24+commit.e67f0147.Emscripten.clang"
  },
  "schemaVersion": "2.0.0",
  "updatedAt": "2018-06-28T17:14:58.772Z"
}