{
  "contractName": "caller",
  "abi": [
    {
      "constant": true,
      "inputs": [],
      "name": "dest",
      "outputs": [
        {
          "name": "",
          "type": "address"
        }
      ],
      "payable": false,
      "stateMutability": "view",
      "type": "function"
    },
    {
      "constant": true,
      "inputs": [],
      "name": "fixedAddr",
      "outputs": [
        {
          "name": "",
          "type": "address"
        }
      ],
      "payable": false,
      "stateMutability": "view",
      "type": "function"
    },
    {
      "constant": false,
      "inputs": [
        {
          "name": "_e",
          "type": "address"
        }
      ],
      "name": "setAddr",
      "outputs": [],
      "payable": false,
      "stateMutability": "nonpayable",
      "type": "function"
    },
    {
      "constant": false,
      "inputs": [],
      "name": "callAddr",
      "outputs": [],
      "payable": false,
      "stateMutability": "nonpayable",
      "type": "function"
    }
  ],
  "bytecode": "0x608060405234801561001057600080fd5b5061032b806100206000396000f300608060405260043610610062576000357c0100000000000000000000000000000000000000000000000000000000900463ffffffff16806384b366dc14610067578063abf5ccdf146100be578063d1d80fdf146100d5578063d29169ce14610118575b600080fd5b34801561007357600080fd5b5061007c61016f565b604051808273ffffffffffffffffffffffffffffffffffffffff1673ffffffffffffffffffffffffffffffffffffffff16815260200191505060405180910390f35b3480156100ca57600080fd5b506100d3610195565b005b3480156100e157600080fd5b50610116600480360381019080803573ffffffffffffffffffffffffffffffffffffffff169060200190929190505050610235565b005b34801561012457600080fd5b5061012d6102da565b604051808273ffffffffffffffffffffffffffffffffffffffff1673ffffffffffffffffffffffffffffffffffffffff16815260200191505060405180910390f35b600160009054906101000a900473ffffffffffffffffffffffffffffffffffffffff1681565b600160009054906101000a900473ffffffffffffffffffffffffffffffffffffffff1673ffffffffffffffffffffffffffffffffffffffff1663a28b749a6040518163ffffffff167c0100000000000000000000000000000000000000000000000000000000028152600401600060405180830381600087803b15801561021b57600080fd5b505af115801561022f573d6000803e3d6000fd5b50505050565b806000806101000a81548173ffffffffffffffffffffffffffffffffffffffff021916908373ffffffffffffffffffffffffffffffffffffffff1602179055506000809054906101000a900473ffffffffffffffffffffffffffffffffffffffff16600160006101000a81548173ffffffffffffffffffffffffffffffffffffffff021916908373ffffffffffffffffffffffffffffffffffffffff16021790555050565b6000809054906101000a900473ffffffffffffffffffffffffffffffffffffffff16815600a165627a7a72305820d4c9c60f8174bd2fdde16f74cb9136946ccbba6544a2bbf08676cacc9ff09dfc0029",
  "source": "pragma solidity ^0.4.23;\n\ncontract calee {\n    uint8 public answer1;\n    bytes32 public answer2;\n    uint public answer3;\n    bytes32 public answer4;\n    uint public answer5;\n\n    constructor() public {\n        answer1 = uint8(keccak256(block.blockhash(block.number - 1), now));\n        answer2 = keccak256(block.blockhash(block.number - 1), now);\n        answer3 = now;\n        answer4 = block.blockhash(block.number - 1);\n        answer5 = block.number;\n    }\n    \n    function guess() public {\n        answer1 = uint8(keccak256(block.blockhash(block.number - 1), now));\n        answer2 = keccak256(block.blockhash(block.number - 1), now);\n        answer3 = now;\n        answer4 = block.blockhash(block.number - 1);\n        answer5 = block.number;\n    }\n}\n\ncontract caller {\n    address public fixedAddr;\n    calee public dest;\n\n    function setAddr( address _e) public {\n        fixedAddr = _e;\n        dest = calee(fixedAddr);\n    }\n\n    function callAddr() public {\n        dest.guess();\n    }\n    \n}",
  "sourcePath": "/home/fscucchiero/Desktop/git/SmartContract_dev/pruebas/contracts/caller.sol",
  "compiler": {
    "name": "solc",
    "version": "0.4.24+commit.e67f0147.Emscripten.clang"
  },
  "schemaVersion": "2.0.0",
  "updatedAt": "2018-06-18T20:23:43.284Z"
}