{
  "contractName": "test",
  "abi": [
    {
      "constant": true,
      "inputs": [],
      "name": "name",
      "outputs": [
        {
          "name": "",
          "type": "bytes32"
        }
      ],
      "payable": false,
      "stateMutability": "view",
      "type": "function"
    },
    {
      "constant": false,
      "inputs": [
        {
          "name": "s",
          "type": "bytes32"
        }
      ],
      "name": "set",
      "outputs": [],
      "payable": false,
      "stateMutability": "nonpayable",
      "type": "function"
    },
    {
      "constant": true,
      "inputs": [],
      "name": "get",
      "outputs": [
        {
          "name": "",
          "type": "bytes32"
        }
      ],
      "payable": false,
      "stateMutability": "view",
      "type": "function"
    }
  ],
  "bytecode": "0x60806040527f686f6c610000000000000000000000000000000000000000000000000000000060009060001916905534801561003a57600080fd5b5061013c8061004a6000396000f300608060405260043610610057576000357c0100000000000000000000000000000000000000000000000000000000900463ffffffff16806306fdde031461005c5780636d4ce63c1461008f578063db80813f146100c2575b600080fd5b34801561006857600080fd5b506100716100f3565b60405180826000191660001916815260200191505060405180910390f35b34801561009b57600080fd5b506100a46100f9565b60405180826000191660001916815260200191505060405180910390f35b3480156100ce57600080fd5b506100f16004803603810190808035600019169060200190929190505050610102565b005b60005481565b60008054905090565b8060008160001916905550505600a165627a7a72305820ce1087c5214ec56456df92e85c241b4c6e867345e78205004b294d3199abfe3b0029",
  "source": "pragma solidity ^0.4.4;\n\ncontract test\n{\n    bytes32 public name=\"hola\";\n    \n    \n    function set (bytes32 s) public \n    {        \n        name = s;\n    }\n    function get() public view returns (bytes32)\n    {\n        return name;\n    }\n    \n}",
  "sourcePath": "/home/fscucchiero/Desktop/git/SmartContract_dev/pruebas/contracts/test.sol",
  "compiler": {
    "name": "solc",
    "version": "0.4.24+commit.e67f0147.Emscripten.clang"
  },
  "schemaVersion": "2.0.0",
  "updatedAt": "2018-06-13T21:18:51.290Z"
}