{
  "contractName": "Crowdexample",
  "abi": [
    {
      "constant": true,
      "inputs": [],
      "name": "rate",
      "outputs": [
        {
          "name": "",
          "type": "uint256"
        }
      ],
      "payable": false,
      "stateMutability": "view",
      "type": "function"
    },
    {
      "constant": true,
      "inputs": [],
      "name": "weiRaised",
      "outputs": [
        {
          "name": "",
          "type": "uint256"
        }
      ],
      "payable": false,
      "stateMutability": "view",
      "type": "function"
    },
    {
      "constant": true,
      "inputs": [],
      "name": "wallet",
      "outputs": [
        {
          "name": "",
          "type": "address"
        }
      ],
      "payable": false,
      "stateMutability": "view",
      "type": "function"
    },
    {
      "constant": false,
      "inputs": [],
      "name": "renounceOwnership",
      "outputs": [],
      "payable": false,
      "stateMutability": "nonpayable",
      "type": "function"
    },
    {
      "constant": true,
      "inputs": [],
      "name": "owner",
      "outputs": [
        {
          "name": "",
          "type": "address"
        }
      ],
      "payable": false,
      "stateMutability": "view",
      "type": "function"
    },
    {
      "constant": false,
      "inputs": [
        {
          "name": "_newOwner",
          "type": "address"
        }
      ],
      "name": "transferOwnership",
      "outputs": [],
      "payable": false,
      "stateMutability": "nonpayable",
      "type": "function"
    },
    {
      "constant": true,
      "inputs": [],
      "name": "token",
      "outputs": [
        {
          "name": "",
          "type": "address"
        }
      ],
      "payable": false,
      "stateMutability": "view",
      "type": "function"
    },
    {
      "payable": true,
      "stateMutability": "payable",
      "type": "fallback"
    },
    {
      "anonymous": false,
      "inputs": [
        {
          "indexed": true,
          "name": "purchaser",
          "type": "address"
        },
        {
          "indexed": true,
          "name": "beneficiary",
          "type": "address"
        },
        {
          "indexed": false,
          "name": "value",
          "type": "uint256"
        },
        {
          "indexed": false,
          "name": "amount",
          "type": "uint256"
        }
      ],
      "name": "TokenPurchase",
      "type": "event"
    },
    {
      "anonymous": false,
      "inputs": [
        {
          "indexed": true,
          "name": "previousOwner",
          "type": "address"
        }
      ],
      "name": "OwnershipRenounced",
      "type": "event"
    },
    {
      "anonymous": false,
      "inputs": [
        {
          "indexed": true,
          "name": "previousOwner",
          "type": "address"
        },
        {
          "indexed": true,
          "name": "newOwner",
          "type": "address"
        }
      ],
      "name": "OwnershipTransferred",
      "type": "event"
    },
    {
      "constant": false,
      "inputs": [
        {
          "name": "_rate",
          "type": "uint256"
        },
        {
          "name": "_wallet",
          "type": "address"
        },
        {
          "name": "_token",
          "type": "address"
        }
      ],
      "name": "setParameters",
      "outputs": [],
      "payable": false,
      "stateMutability": "nonpayable",
      "type": "function"
    },
    {
      "constant": false,
      "inputs": [
        {
          "name": "_beneficiary",
          "type": "address"
        }
      ],
      "name": "buyTokens",
      "outputs": [],
      "payable": true,
      "stateMutability": "payable",
      "type": "function"
    }
  ],
  "bytecode": "0x6080604052336000806101000a81548173ffffffffffffffffffffffffffffffffffffffff021916908373ffffffffffffffffffffffffffffffffffffffff160217905550610a8e806100536000396000f300608060405260043610610099576000357c0100000000000000000000000000000000000000000000000000000000900463ffffffff1680631915d4c6146100a45780632c4e722e146101115780634042b66f1461013c578063521eb27314610167578063715018a6146101be5780638da5cb5b146101d5578063ec8ac4d81461022c578063f2fde38b14610262578063fc0c546a146102a5575b6100a2336102fc565b005b3480156100b057600080fd5b5061010f60048036038101908080359060200190929190803573ffffffffffffffffffffffffffffffffffffffff169060200190929190803573ffffffffffffffffffffffffffffffffffffffff1690602001909291905050506103ca565b005b34801561011d57600080fd5b5061012661053a565b6040518082815260200191505060405180910390f35b34801561014857600080fd5b50610151610540565b6040518082815260200191505060405180910390f35b34801561017357600080fd5b5061017c610546565b604051808273ffffffffffffffffffffffffffffffffffffffff1673ffffffffffffffffffffffffffffffffffffffff16815260200191505060405180910390f35b3480156101ca57600080fd5b506101d361056c565b005b3480156101e157600080fd5b506101ea61066e565b604051808273ffffffffffffffffffffffffffffffffffffffff1673ffffffffffffffffffffffffffffffffffffffff16815260200191505060405180910390f35b610260600480360381019080803573ffffffffffffffffffffffffffffffffffffffff1690602001909291905050506102fc565b005b34801561026e57600080fd5b506102a3600480360381019080803573ffffffffffffffffffffffffffffffffffffffff169060200190929190505050610693565b005b3480156102b157600080fd5b506102ba6106fa565b604051808273ffffffffffffffffffffffffffffffffffffffff1673ffffffffffffffffffffffffffffffffffffffff16815260200191505060405180910390f35b60008034915061030c8383610720565b61031582610770565b905061032c8260045461078e90919063ffffffff16565b60048190555061033c83826107aa565b8273ffffffffffffffffffffffffffffffffffffffff163373ffffffffffffffffffffffffffffffffffffffff167f623b3804fa71d67900d064613da8f94b9617215ee90799290593e1745087ad188484604051808381526020018281526020019250505060405180910390a36103b383836107b8565b6103bb6107bc565b6103c58383610827565b505050565b6000809054906101000a900473ffffffffffffffffffffffffffffffffffffffff1673ffffffffffffffffffffffffffffffffffffffff163373ffffffffffffffffffffffffffffffffffffffff1614151561042557600080fd5b60008311151561043457600080fd5b600073ffffffffffffffffffffffffffffffffffffffff168273ffffffffffffffffffffffffffffffffffffffff161415151561047057600080fd5b600073ffffffffffffffffffffffffffffffffffffffff168173ffffffffffffffffffffffffffffffffffffffff16141515156104ac57600080fd5b8260038190555081600260006101000a81548173ffffffffffffffffffffffffffffffffffffffff021916908373ffffffffffffffffffffffffffffffffffffffff16021790555080600160006101000a81548173ffffffffffffffffffffffffffffffffffffffff021916908373ffffffffffffffffffffffffffffffffffffffff160217905550505050565b60035481565b60045481565b600260009054906101000a900473ffffffffffffffffffffffffffffffffffffffff1681565b6000809054906101000a900473ffffffffffffffffffffffffffffffffffffffff1673ffffffffffffffffffffffffffffffffffffffff163373ffffffffffffffffffffffffffffffffffffffff161415156105c757600080fd5b6000809054906101000a900473ffffffffffffffffffffffffffffffffffffffff1673ffffffffffffffffffffffffffffffffffffffff167ff8df31144d9c2f0f6b59d69b8b98abd5459d07f2742c4df920b25aae33c6482060405160405180910390a260008060006101000a81548173ffffffffffffffffffffffffffffffffffffffff021916908373ffffffffffffffffffffffffffffffffffffffff160217905550565b6000809054906101000a900473ffffffffffffffffffffffffffffffffffffffff1681565b6000809054906101000a900473ffffffffffffffffffffffffffffffffffffffff1673ffffffffffffffffffffffffffffffffffffffff163373ffffffffffffffffffffffffffffffffffffffff161415156106ee57600080fd5b6106f78161082b565b50565b600160009054906101000a900473ffffffffffffffffffffffffffffffffffffffff1681565b600073ffffffffffffffffffffffffffffffffffffffff168273ffffffffffffffffffffffffffffffffffffffff161415151561075c57600080fd5b6000811415151561076c57600080fd5b5050565b60006107876003548361092590919063ffffffff16565b9050919050565b600081830190508281101515156107a157fe5b80905092915050565b6107b4828261095d565b5050565b5050565b600260009054906101000a900473ffffffffffffffffffffffffffffffffffffffff1673ffffffffffffffffffffffffffffffffffffffff166108fc349081150290604051600060405180830381858888f19350505050158015610824573d6000803e3d6000fd5b50565b5050565b600073ffffffffffffffffffffffffffffffffffffffff168173ffffffffffffffffffffffffffffffffffffffff161415151561086757600080fd5b8073ffffffffffffffffffffffffffffffffffffffff166000809054906101000a900473ffffffffffffffffffffffffffffffffffffffff1673ffffffffffffffffffffffffffffffffffffffff167f8be0079c531659141344cd1fd0a4f28419497f9722a3daafe3b4186f6b6457e060405160405180910390a3806000806101000a81548173ffffffffffffffffffffffffffffffffffffffff021916908373ffffffffffffffffffffffffffffffffffffffff16021790555050565b6000808314156109385760009050610957565b818302905081838281151561094957fe5b0414151561095357fe5b8090505b92915050565b600160009054906101000a900473ffffffffffffffffffffffffffffffffffffffff1673ffffffffffffffffffffffffffffffffffffffff166340c10f1983836040518363ffffffff167c0100000000000000000000000000000000000000000000000000000000028152600401808373ffffffffffffffffffffffffffffffffffffffff1673ffffffffffffffffffffffffffffffffffffffff16815260200182815260200192505050602060405180830381600087803b158015610a2257600080fd5b505af1158015610a36573d6000803e3d6000fd5b505050506040513d6020811015610a4c57600080fd5b81019080805190602001909291905050505050505600a165627a7a723058200403e32d5f4b9589239a7f0caebcf52db53c6ca4b1bdf8ed560951cc7cae3ee00029",
  "source": "pragma solidity ^0.4.24;\n\nimport \"./Scoin.sol\";\nimport \"openzeppelin-solidity/contracts/crowdsale/Crowdsale.sol\";\n\ncontract Crowdexample is Ownable {\n    using SafeMath for uint256;\n\n    // The token being sold\n    Scoin public token;\n\n    // Address where funds are collected\n    address public wallet;\n\n    // How many token units a buyer gets per wei.\n    // The rate is the conversion between wei and the smallest and indivisible token unit.\n    // So, if you are using a rate of 1 with a DetailedERC20 token with 3 decimals called TOK\n    // 1 wei will give you 1 unit, or 0.001 TOK.\n    uint256 public rate;\n\n    // Amount of wei raised\n    uint256 public weiRaised;\n\n    /**\n    * Event for token purchase logging\n    * @param purchaser who paid for the tokens\n    * @param beneficiary who got the tokens\n    * @param value weis paid for purchase\n    * @param amount amount of tokens purchased\n    */\n    event TokenPurchase(\n        address indexed purchaser,\n        address indexed beneficiary,\n        uint256 value,\n        uint256 amount\n    );\n\n    /**\n    * @param _rate Number of token units a buyer gets per wei\n    * @param _wallet Address where collected funds will be forwarded to\n    * @param _token Address of the token being sold\n    */\n   \n    function setParameters(uint256 _rate, address _wallet, Scoin _token) public onlyOwner {\n        require(_rate > 0);\n        require(_wallet != address(0));\n        require(_token != address(0));\n\n        rate = _rate;\n        wallet = _wallet;\n        token = _token;\n    }\n\n    // -----------------------------------------\n    // Crowdsale external interface\n    // -----------------------------------------\n\n    /**\n    * @dev fallback function ***DO NOT OVERRIDE***\n    */\n    function () external payable {\n        buyTokens(msg.sender);\n    }\n\n    /**\n    * @dev low level token purchase ***DO NOT OVERRIDE***\n    * @param _beneficiary Address performing the token purchase\n    */\n    function buyTokens(address _beneficiary) public payable {\n\n        uint256 weiAmount = msg.value;\n        _preValidatePurchase(_beneficiary, weiAmount);\n\n        // calculate token amount to be created\n        uint256 tokens = _getTokenAmount(weiAmount);\n\n        // update state\n        weiRaised = weiRaised.add(weiAmount);\n\n        _processPurchase(_beneficiary, tokens);\n        emit TokenPurchase(msg.sender,_beneficiary,weiAmount,tokens);\n\n        _updatePurchasingState(_beneficiary, weiAmount);\n\n        _forwardFunds();\n        _postValidatePurchase(_beneficiary, weiAmount);\n    }\n\n    // -----------------------------------------\n    // Internal interface (extensible)\n    // ----------------     -------------------------\n\n    /**\n    * @dev Validation of an incoming purchase. Use require statements to revert state when conditions are not met. Use super to concatenate validations.\n    * @param _beneficiary Address performing the token purchase\n    * @param _weiAmount Value in wei involved in the purchase\n    */\n    function _preValidatePurchase(\n        address _beneficiary,\n        uint256 _weiAmount\n    )\n        internal\n    {\n        require(_beneficiary != address(0));\n        require(_weiAmount != 0);\n    }\n\n    /**\n    * @dev Validation of an executed purchase. Observe state and use revert statements to undo rollback when valid conditions are not met.\n    * @param _beneficiary Address performing the token purchase\n    * @param _weiAmount Value in wei involved in the purchase\n    */\n    function _postValidatePurchase(\n        address _beneficiary,\n        uint256 _weiAmount\n    )\n        internal\n    {\n        // optional override\n    }\n\n    /**\n    * @dev Source of tokens. Override this method to modify the way in which the crowdsale ultimately gets and sends its tokens.\n    * @param _beneficiary Address performing the token purchase\n    * @param _tokenAmount Number of tokens to be emitted\n    */\n    function _deliverTokens(\n        address _beneficiary,\n        uint256 _tokenAmount\n    )\n        internal\n    {\n        token.mint(_beneficiary, _tokenAmount);\n    }\n\n    /**\n    * @dev Executed when a purchase has been validated and is ready to be executed. Not necessarily emits/sends tokens.\n    * @param _beneficiary Address receiving the tokens\n    * @param _tokenAmount Number of tokens to be purchased\n    */\n    function _processPurchase(\n        address _beneficiary,\n        uint256 _tokenAmount\n    )\n        internal\n    {\n        _deliverTokens(_beneficiary, _tokenAmount);\n    }\n\n    /**\n    * @dev Override for extensions that require an internal state to check for validity (current user contributions, etc.)\n    * @param _beneficiary Address receiving the tokens\n    * @param _weiAmount Value in wei involved in the purchase\n    */\n    function _updatePurchasingState(\n        address _beneficiary,\n        uint256 _weiAmount\n    )\n        internal\n    {\n        // optional override\n    }\n\n    /**\n    * @dev Override to extend the way in which ether is converted to tokens.\n    * @param _weiAmount Value in wei to be converted into tokens\n    * @return Number of tokens that can be purchased with the specified _weiAmount\n    */\n    function _getTokenAmount(uint256 _weiAmount)\n        internal view returns (uint256)\n    {\n        return _weiAmount.mul(rate);\n    }\n\n    /**\n    * @dev Determines how ETH is stored/forwarded on purchases.\n    */\n    function _forwardFunds() internal {\n        wallet.transfer(msg.value);\n    }\n}",
  "sourcePath": "/home/fscucchiero/Desktop/git/SmartContract_dev/newToken/contracts/Crowdexample.sol",
  "compiler": {
    "name": "solc",
    "version": "0.4.24+commit.e67f0147.Emscripten.clang"
  },
  "schemaVersion": "2.0.0",
  "updatedAt": "2018-06-07T17:36:38.909Z"
}