{
  "contractName": "Picker",
  "abi": [
    {
      "constant": false,
      "inputs": [],
      "name": "receiver",
      "outputs": [],
      "payable": true,
      "stateMutability": "payable",
      "type": "function"
    }
  ],
  "bytecode": "0x6080604052348015600f57600080fd5b50607a8061001e6000396000f300608060405260043610603f576000357c0100000000000000000000000000000000000000000000000000000000900463ffffffff168063f7260d3e146044575b600080fd5b604a604c565b005b5600a165627a7a723058204992eaa285bbde78708a7f87cacf0629d70c85e5807a43f24a3cbd9a2a9cd9220029",
  "source": "pragma solidity ^0.4.23;\n\ncontract Picker\n{\n    function receiver() public payable\n    {\n        \n    }\n}",
  "sourcePath": "/home/fscucchiero/Desktop/contractTesting/firstContract/contracts/Picker.sol",
  "compiler": {
    "name": "solc",
    "version": "0.4.24+commit.e67f0147.Emscripten.clang"
  },
  "schemaVersion": "2.0.0",
  "updatedAt": "2018-05-29T21:12:05.926Z"
}