{
  "contractName": "Crowdsale",
  "abi": [
    {
      "constant": true,
      "inputs": [],
      "name": "rate",
      "outputs": [
        {
          "name": "",
          "type": "uint256"
        }
      ],
      "payable": false,
      "stateMutability": "view",
      "type": "function"
    },
    {
      "constant": true,
      "inputs": [],
      "name": "weiRaised",
      "outputs": [
        {
          "name": "",
          "type": "uint256"
        }
      ],
      "payable": false,
      "stateMutability": "view",
      "type": "function"
    },
    {
      "constant": true,
      "inputs": [],
      "name": "wallet",
      "outputs": [
        {
          "name": "",
          "type": "address"
        }
      ],
      "payable": false,
      "stateMutability": "view",
      "type": "function"
    },
    {
      "constant": true,
      "inputs": [],
      "name": "token",
      "outputs": [
        {
          "name": "",
          "type": "address"
        }
      ],
      "payable": false,
      "stateMutability": "view",
      "type": "function"
    },
    {
      "payable": true,
      "stateMutability": "payable",
      "type": "fallback"
    },
    {
      "anonymous": false,
      "inputs": [
        {
          "indexed": true,
          "name": "purchaser",
          "type": "address"
        },
        {
          "indexed": true,
          "name": "beneficiary",
          "type": "address"
        },
        {
          "indexed": false,
          "name": "value",
          "type": "uint256"
        },
        {
          "indexed": false,
          "name": "amount",
          "type": "uint256"
        }
      ],
      "name": "TokenPurchase",
      "type": "event"
    },
    {
      "constant": false,
      "inputs": [
        {
          "name": "_rate",
          "type": "uint256"
        },
        {
          "name": "_wallet",
          "type": "address"
        },
        {
          "name": "_token",
          "type": "address"
        }
      ],
      "name": "setParameters",
      "outputs": [],
      "payable": false,
      "stateMutability": "nonpayable",
      "type": "function"
    },
    {
      "constant": false,
      "inputs": [
        {
          "name": "_beneficiary",
          "type": "address"
        }
      ],
      "name": "buyTokens",
      "outputs": [
        {
          "name": "",
          "type": "bool"
        }
      ],
      "payable": true,
      "stateMutability": "payable",
      "type": "function"
    }
  ],
  "bytecode": "0x608060405234801561001057600080fd5b506106f7806100206000396000f300608060405260043610610078576000357c0100000000000000000000000000000000000000000000000000000000900463ffffffff1680631915d4c6146100845780632c4e722e146100f15780634042b66f1461011c578063521eb27314610147578063ec8ac4d81461019e578063fc0c546a146101ec575b61008133610243565b50005b34801561009057600080fd5b506100ef60048036038101908080359060200190929190803573ffffffffffffffffffffffffffffffffffffffff169060200190929190803573ffffffffffffffffffffffffffffffffffffffff169060200190929190505050610319565b005b3480156100fd57600080fd5b5061010661042d565b6040518082815260200191505060405180910390f35b34801561012857600080fd5b50610131610433565b6040518082815260200191505060405180910390f35b34801561015357600080fd5b5061015c610439565b604051808273ffffffffffffffffffffffffffffffffffffffff1673ffffffffffffffffffffffffffffffffffffffff16815260200191505060405180910390f35b6101d2600480360381019080803573ffffffffffffffffffffffffffffffffffffffff169060200190929190505050610243565b604051808215151515815260200191505060405180910390f35b3480156101f857600080fd5b5061020161045f565b604051808273ffffffffffffffffffffffffffffffffffffffff1673ffffffffffffffffffffffffffffffffffffffff16815260200191505060405180910390f35b60008060003491506102558483610484565b61025e826104d4565b9050610275826003546104f290919063ffffffff16565b600381905550610285848261050e565b8373ffffffffffffffffffffffffffffffffffffffff163373ffffffffffffffffffffffffffffffffffffffff167f623b3804fa71d67900d064613da8f94b9617215ee90799290593e1745087ad188484604051808381526020018281526020019250505060405180910390a36102fc848361051c565b610304610520565b61030e848361058b565b600192505050919050565b60008311151561032857600080fd5b600073ffffffffffffffffffffffffffffffffffffffff168273ffffffffffffffffffffffffffffffffffffffff161415151561036457600080fd5b600073ffffffffffffffffffffffffffffffffffffffff168173ffffffffffffffffffffffffffffffffffffffff16141515156103a057600080fd5b8260028190555081600160006101000a81548173ffffffffffffffffffffffffffffffffffffffff021916908373ffffffffffffffffffffffffffffffffffffffff160217905550806000806101000a81548173ffffffffffffffffffffffffffffffffffffffff021916908373ffffffffffffffffffffffffffffffffffffffff160217905550505050565b60025481565b60035481565b600160009054906101000a900473ffffffffffffffffffffffffffffffffffffffff1681565b6000809054906101000a900473ffffffffffffffffffffffffffffffffffffffff1681565b600073ffffffffffffffffffffffffffffffffffffffff168273ffffffffffffffffffffffffffffffffffffffff16141515156104c057600080fd5b600081141515156104d057600080fd5b5050565b60006104eb6002548361058f90919063ffffffff16565b9050919050565b6000818301905082811015151561050557fe5b80905092915050565b61051882826105c7565b5050565b5050565b600160009054906101000a900473ffffffffffffffffffffffffffffffffffffffff1673ffffffffffffffffffffffffffffffffffffffff166108fc349081150290604051600060405180830381858888f19350505050158015610588573d6000803e3d6000fd5b50565b5050565b6000808314156105a257600090506105c1565b81830290508183828115156105b357fe5b041415156105bd57fe5b8090505b92915050565b6000809054906101000a900473ffffffffffffffffffffffffffffffffffffffff1673ffffffffffffffffffffffffffffffffffffffff166340c10f1983836040518363ffffffff167c0100000000000000000000000000000000000000000000000000000000028152600401808373ffffffffffffffffffffffffffffffffffffffff1673ffffffffffffffffffffffffffffffffffffffff16815260200182815260200192505050602060405180830381600087803b15801561068b57600080fd5b505af115801561069f573d6000803e3d6000fd5b505050506040513d60208110156106b557600080fd5b81019080805190602001909291905050505050505600a165627a7a723058208d4a84a919cdb4227f464c538d7639b31d89110c7a1c9041c8580bb3ef0bb8aa0029",
  "source": "pragma solidity ^0.4.4;\n\nlibrary SafeMath {\n\n  /**\n  * @dev Multiplies two numbers, throws on overflow.\n  */\n    function mul(uint256 a, uint256 b) internal pure returns (uint256 c) {\n        if (a == 0) \n        {\n            return 0;\n        }\n        c = a * b;\n        assert(c / a == b);\n        return c;\n    }\n\n    /**\n    * @dev Integer division of two numbers, truncating the quotient.\n    */\n    function div(uint256 a, uint256 b) internal pure returns (uint256) {\n        // assert(b > 0); // Solidity automatically throws when dividing by 0\n        // uint256 c = a / b;\n        // assert(a == b * c + a % b); // There is no case in which this doesn't hold\n        return a / b;\n    }\n\n    /**\n    * @dev Subtracts two numbers, throws on overflow (i.e. if subtrahend is greater than minuend).\n    */\n    function sub(uint256 a, uint256 b) internal pure returns (uint256) {\n        assert(b <= a);\n        return a - b;\n    }\n\n    /**\n    * @dev Adds two numbers, throws on overflow.\n    */\n    function add(uint256 a, uint256 b) internal pure returns (uint256 c) {\n        c = a + b;\n        assert(c >= a);\n        return c;\n    }\n}\n\n\ncontract ERC20Basic {\n    function totalSupply() public view returns (uint256);\n    function balanceOf(address who) public view returns (uint256);\n    function transfer(address to, uint256 value) public returns (bool);\n    event Transfer(address indexed from, address indexed to, uint256 value);\n}\n\ncontract ERC20 is ERC20Basic {\n    function allowance(address owner, address spender)\n        public view returns (uint256);\n\n    function transferFrom(address from, address to, uint256 value)\n        public returns (bool);\n\n    function approve(address spender, uint256 value) public returns (bool);\n    event Approval(\n    address indexed owner,\n    address indexed spender,\n    uint256 value\n    );\n}\n/**\n * @title Crowdsale\n * @dev Crowdsale is a base contract for managing a token crowdsale,\n * allowing investors to purchase tokens with ether. This contract implements\n * such functionality in its most fundamental form and can be extended to provide additional\n * functionality and/or custom behavior.\n * The external interface represents the basic interface for purchasing tokens, and conform\n * the base architecture for crowdsales. They are *not* intended to be modified / overriden.\n * The internal interface conforms the extensible and modifiable surface of crowdsales. Override\n * the methods to add functionality. Consider using 'super' where appropiate to concatenate\n * behavior.\n */\n\n \n\ncontract BasicToken is ERC20Basic {\n    using SafeMath for uint256;\n\n    mapping(address => uint256) balances;\n\n    uint256 totalSupply_;\n\n    /**\n    * @dev total number of tokens in existence\n    */\n    function totalSupply() public view returns (uint256) {\n        return totalSupply_;\n    }\n\n    /**\n    * @dev transfer token for a specified address\n    * @param _to The address to transfer to.\n    * @param _value The amount to be transferred.\n    */\n    function transfer(address _to, uint256 _value) public returns (bool) \n    {\n        require(_to != address(0));\n        require(_value <= balances[msg.sender]);\n\n        balances[msg.sender] = balances[msg.sender].sub(_value);\n        balances[_to] = balances[_to].add(_value);\n        emit Transfer(msg.sender, _to, _value);\n        return true;\n    }\n\n    /**\n    * @dev Gets the balance of the specified address.\n    * @param _owner The address to query the the balance of.\n    * @return An uint256 representing the amount owned by the passed address.\n    */\n    function balanceOf(address _owner) public view returns (uint256) {\n        return balances[_owner];\n    }\n\n}\n\ncontract StandardToken is ERC20, BasicToken {\n\n    mapping (address => mapping (address => uint256)) internal allowed;\n\n\n    /**\n    * @dev Transfer tokens from one address to another\n    * @param _from address The address which you want to send tokens from\n    * @param _to address The address which you want to transfer to\n    * @param _value uint256 the amount of tokens to be transferred\n    */\n    function transferFrom(\n        address _from,\n        address _to,\n        uint256 _value\n  )\n    public returns (bool)\n    {\n        require(_to != address(0));\n        require(_value <= balances[_from]);\n        require(_value <= allowed[_from][msg.sender]);\n\n        balances[_from] = balances[_from].sub(_value);\n        balances[_to] = balances[_to].add(_value);\n        allowed[_from][msg.sender] = allowed[_from][msg.sender].sub(_value);\n        emit Transfer(_from, _to, _value);\n        return true;\n    }\n\n  /**\n   * @dev Approve the passed address to spend the specified amount of tokens on behalf of msg.sender.\n   *\n   * Beware that changing an allowance with this method brings the risk that someone may use both the old\n   * and the new allowance by unfortunate transaction ordering. One possible solution to mitigate this\n   * race condition is to first reduce the spender's allowance to 0 and set the desired value afterwards:\n   * https://github.com/ethereum/EIPs/issues/20#issuecomment-263524729\n   * @param _spender The address which will spend the funds.\n   * @param _value The amount of tokens to be spent.\n   */\n    function approve(address _spender, uint256 _value) public returns (bool) {\n        allowed[msg.sender][_spender] = _value;\n        emit Approval(msg.sender, _spender, _value);\n        return true;\n    }\n\n  /**\n   * @dev Function to check the amount of tokens that an owner allowed to a spender.\n   * @param _owner address The address which owns the funds.\n   * @param _spender address The address which will spend the funds.\n   * @return A uint256 specifying the amount of tokens still available for the spender.\n   */\n    function allowance(\n        address _owner,\n        address _spender\n    )\n        public\n        view\n        returns (uint256)\n    {\n        return allowed[_owner][_spender];\n    }\n\n  /**\n   * @dev Increase the amount of tokens that an owner allowed to a spender.\n   *\n   * approve should be called when allowed[_spender] == 0. To increment\n   * allowed value is better to use this function to avoid 2 calls (and wait until\n   * the first transaction is mined)\n   * From MonolithDAO Token.sol\n   * @param _spender The address which will spend the funds.\n   * @param _addedValue The amount of tokens to increase the allowance by.\n   */\n    function increaseApproval(\n        address _spender,\n        uint _addedValue\n    )\n        public\n        returns (bool)\n    {\n        allowed[msg.sender][_spender] = (\n        allowed[msg.sender][_spender].add(_addedValue));\n        emit Approval(msg.sender, _spender, allowed[msg.sender][_spender]);\n        return true;\n    }\n\n    /**\n    * @dev Decrease the amount of tokens that an owner allowed to a spender.\n    *\n    * approve should be called when allowed[_spender] == 0. To decrement\n    * allowed value is better to use this function to avoid 2 calls (and wait until\n    * the first transaction is mined)\n    * From MonolithDAO Token.sol\n    * @param _spender The address which will spend the funds.\n    * @param _subtractedValue The amount of tokens to decrease the allowance by.\n    */\n    function decreaseApproval(\n        address _spender,\n        uint _subtractedValue\n    )\n        public\n        returns (bool)\n    {\n        uint oldValue = allowed[msg.sender][_spender];\n        if (_subtractedValue > oldValue) \n        {\n            allowed[msg.sender][_spender] = 0;\n        } else \n        {\n            allowed[msg.sender][_spender] = oldValue.sub(_subtractedValue);\n        }\n        emit Approval(msg.sender, _spender, allowed[msg.sender][_spender]);\n        return true;\n    }\n\n}\n\ncontract Ownable {\n    address public owner;\n\n\n    event OwnershipRenounced(address indexed previousOwner);\n    event OwnershipTransferred(\n        address indexed previousOwner,\n        address indexed newOwner\n    );\n\n\n    /**\n    * @dev The Ownable constructor sets the original `owner` of the contract to the sender\n    * account.\n    */\n    constructor() public {\n        owner = msg.sender;\n    }\n\n    /**\n    * @dev Throws if called by any account other than the owner.\n    */\n    modifier onlyOwner() {\n        require(msg.sender == owner);\n        _;\n    }\n\n    /**\n    * @dev Allows the current owner to transfer control of the contract to a newOwner.\n    * @param newOwner The address to transfer ownership to.\n    */\n    function transferOwnership(address newOwner) public onlyOwner {\n        require(newOwner != address(0));\n        emit OwnershipTransferred(owner, newOwner);\n        owner = newOwner;\n    }\n\n    /**\n    * @dev Allows the current owner to relinquish control of the contract.\n    */\n    function renounceOwnership() public onlyOwner {\n        emit OwnershipRenounced(owner);\n        owner = address(0);\n    }\n}\n\ncontract MintableToken is StandardToken, Ownable \n{\n    event Mint(address indexed to, uint256 amount);\n    event MintFinished();\n\n    bool public mintingFinished = false;\n    address allowed;\n\n    modifier canMint() {\n        require(!mintingFinished);\n        _;\n    }\n\n    modifier hasMintPermission() {\n        require(msg.sender == owner || msg.sender == allowed);\n        _;\n    }\n\n    function setAllowed (address allow) public onlyOwner\n    {        \n        allowed = allow;\n    }\n    /**\n    * @dev Function to mint tokens\n    * @param _to The address that will receive the minted tokens.\n    * @param _amount The amount of tokens to mint.\n    * @return A boolean that indicates if the operation was successful.\n    */\n    function mint(\n        address _to,\n        uint256 _amount\n    )\n        hasMintPermission\n        canMint\n        public\n        returns (bool)\n    {\n        totalSupply_ = totalSupply_.add(_amount);\n        balances[_to] = balances[_to].add(_amount);\n        emit Mint(_to, _amount);\n        emit Transfer(address(0), _to, _amount);\n        return true;\n    }\n\n    /**\n    * @dev Function to stop minting new tokens.\n    * @return True if the operation was successful.\n    */\n    function finishMinting() onlyOwner canMint public returns (bool) {\n        mintingFinished = true;\n        emit MintFinished();\n        return true;\n    }\n}\n\ncontract Crowdsale {\n    using SafeMath for uint256;\n\n    // The token being sold\n    MintableToken public token;\n\n    // Address where funds are collected\n    address public wallet;\n\n    // How many token units a buyer gets per wei\n    uint256 public rate;\n\n    // Amount of wei raised\n    uint256 public weiRaised;\n\n    /**\n    * Event for token purchase logging\n    * @param purchaser who paid for the tokens\n    * @param beneficiary who got the tokens\n    * @param value weis paid for purchase\n    * @param amount amount of tokens purchased\n    */\n    event TokenPurchase(\n        address indexed purchaser,\n        address indexed beneficiary,\n        uint256 value,\n        uint256 amount\n    );\n\n    /**\n    * @param _rate Number of token units a buyer gets per wei\n    * @param _wallet Address where collected funds will be forwarded to\n    * @param _token Address of the token being sold\n    */\n    function setParameters(uint256 _rate, address _wallet, MintableToken _token) public \n    {\n        require(_rate > 0);\n        require(_wallet != address(0));\n        require(_token != address(0));\n\n        rate = _rate;\n        wallet = _wallet;\n        token = _token;\n    }\n\n    // -----------------------------------------\n    // Crowdsale external interface\n    // -----------------------------------------\n\n    /**\n    * @dev fallback function ***DO NOT OVERRIDE***\n    */\n    function () external payable \n    {\n        buyTokens(msg.sender);\n    }\n\n    /**\n    * @dev low level token purchase ***DO NOT OVERRIDE***\n    * @param _beneficiary Address performing the token purchase\n    */\n    function buyTokens(address _beneficiary) public payable returns (bool) {\n\n        uint256 weiAmount = msg.value;\n        _preValidatePurchase(_beneficiary, weiAmount);\n\n        // calculate token amount to be created\n        uint256 tokens = _getTokenAmount(weiAmount);\n\n        // update state\n        weiRaised = weiRaised.add(weiAmount);\n\n        _processPurchase(_beneficiary, tokens);\n        emit TokenPurchase\n        (\n            msg.sender,\n            _beneficiary,\n            weiAmount,\n            tokens\n        );\n\n        _updatePurchasingState(_beneficiary, weiAmount);\n\n        _forwardFunds();\n        _postValidatePurchase(_beneficiary, weiAmount);\n        return true;\n    }\n\n    // -----------------------------------------\n    // Internal interface (extensible)\n    // -----------------------------------------\n\n    /**\n    * @dev Validation of an incoming purchase. Use require statements to revert state when conditions are not met. Use super to concatenate validations.\n    * @param _beneficiary Address performing the token purchase\n    * @param _weiAmount Value in wei involved in the purchase\n    */\n    function _preValidatePurchase(\n        address _beneficiary,\n        uint256 _weiAmount\n    )\n        internal\n    {\n        require(_beneficiary != address(0));\n        require(_weiAmount != 0);\n    }\n\n    /**\n    * @dev Validation of an executed purchase. Observe state and use revert statements to undo rollback when valid conditions are not met.\n    * @param _beneficiary Address performing the token purchase\n    * @param _weiAmount Value in wei involved in the purchase\n    */\n    function _postValidatePurchase(\n        address _beneficiary,\n        uint256 _weiAmount\n    )\n        internal\n    {\n        // optional override\n    }\n\n    /**\n    * @dev Source of tokens. Override this method to modify the way in which the crowdsale ultimately gets and sends its tokens.\n    * @param _beneficiary Address performing the token purchase\n    * @param _tokenAmount Number of tokens to be emitted\n    */\n    function _deliverTokens(\n        address _beneficiary,\n        uint256 _tokenAmount\n    )\n        internal\n    {\n        token.mint(_beneficiary, _tokenAmount);\n    }\n\n    /**\n    * @dev Executed when a purchase has been validated and is ready to be executed. Not necessarily emits/sends tokens.\n    * @param _beneficiary Address receiving the tokens\n    * @param _tokenAmount Number of tokens to be purchased\n    */\n    function _processPurchase(\n        address _beneficiary,\n        uint256 _tokenAmount\n    )\n        internal\n    {\n        _deliverTokens(_beneficiary, _tokenAmount);\n    }\n\n    /**\n    * @dev Override for extensions that require an internal state to check for validity (current user contributions, etc.)\n    * @param _beneficiary Address receiving the tokens\n    * @param _weiAmount Value in wei involved in the purchase\n    */\n    function _updatePurchasingState(\n        address _beneficiary,\n        uint256 _weiAmount\n    )\n        internal\n    {\n        // optional override\n    }\n\n    /**\n    * @dev Override to extend the way in which ether is converted to tokens.\n    * @param _weiAmount Value in wei to be converted into tokens\n    * @return Number of tokens that can be purchased with the specified _weiAmount\n    */\n    function _getTokenAmount(uint256 _weiAmount)\n        internal view returns (uint256)\n    {\n        return _weiAmount.mul(rate);\n    }\n\n    /**\n    * @dev Determines how ETH is stored/forwarded on purchases.\n    */\n    function _forwardFunds() internal {\n        wallet.transfer(msg.value);\n    }\n}\n",
  "sourcePath": "/home/fscucchiero/Desktop/contract/contracts/Crowdsale.sol",
  "compiler": {
    "name": "solc",
    "version": "0.4.24+commit.e67f0147.Emscripten.clang"
  },
  "schemaVersion": "2.0.0",
  "updatedAt": "2018-06-05T18:13:20.209Z"
}