{
  "contractName": "Inter",
  "abi": [
    {
      "payable": true,
      "stateMutability": "payable",
      "type": "fallback"
    },
    {
      "constant": false,
      "inputs": [],
      "name": "withdraw",
      "outputs": [],
      "payable": false,
      "stateMutability": "nonpayable",
      "type": "function"
    },
    {
      "constant": true,
      "inputs": [],
      "name": "sayMemories",
      "outputs": [
        {
          "name": "",
          "type": "uint256"
        }
      ],
      "payable": false,
      "stateMutability": "view",
      "type": "function"
    },
    {
      "constant": true,
      "inputs": [],
      "name": "sayCaller",
      "outputs": [
        {
          "name": "",
          "type": "address"
        }
      ],
      "payable": false,
      "stateMutability": "view",
      "type": "function"
    }
  ],
  "bytecode": "0x60806040526001600260146101000a81548160ff02191690831515021790555034801561002b57600080fd5b506103048061003b6000396000f300608060405260043610610057576000357c0100000000000000000000000000000000000000000000000000000000900463ffffffff1680633ccfd60b1461012e578063915893e014610145578063a0c54d3514610170575b600260149054906101000a900460ff16156100e057671bc16d674ec80000341015151561008357600080fd5b33600260006101000a81548173ffffffffffffffffffffffffffffffffffffffff021916908373ffffffffffffffffffffffffffffffffffffffff1602179055506000600260146101000a81548160ff0219169083151502179055505b346000540160008190555033600160006101000a81548173ffffffffffffffffffffffffffffffffffffffff021916908373ffffffffffffffffffffffffffffffffffffffff160217905550005b34801561013a57600080fd5b506101436101c7565b005b34801561015157600080fd5b5061015a6102a5565b6040518082815260200191505060405180910390f35b34801561017c57600080fd5b506101856102ae565b604051808273ffffffffffffffffffffffffffffffffffffffff1673ffffffffffffffffffffffffffffffffffffffff16815260200191505060405180910390f35b600260009054906101000a900473ffffffffffffffffffffffffffffffffffffffff1673ffffffffffffffffffffffffffffffffffffffff163373ffffffffffffffffffffffffffffffffffffffff1614151561022357600080fd5b600260009054906101000a900473ffffffffffffffffffffffffffffffffffffffff1673ffffffffffffffffffffffffffffffffffffffff166108fc3073ffffffffffffffffffffffffffffffffffffffff16319081150290604051600060405180830381858888f193505050501580156102a2573d6000803e3d6000fd5b50565b60008054905090565b6000600160009054906101000a900473ffffffffffffffffffffffffffffffffffffffff169050905600a165627a7a72305820aadc222fda27384e757665f45a70f1dbe681f4715396d6463275e0ed86815fb50029",
  "source": "pragma solidity ^0.4.23;\n\ncontract Inter \n{\n    uint256 memories;\n    address lastCaller;\n    address firstCaller;\n    bool isFirst=true;\n\n    function () payable\n    {\n  \n        if (isFirst) \n        {\n            require(msg.value >= 2 ether);\n            firstCaller = msg.sender;            \n            isFirst = false;\n        }\n        memories = memories + msg.value;\n        lastCaller = msg.sender;\n    }\n    function withdraw() public\n    {\n        require(msg.sender == firstCaller);\n        firstCaller.transfer(this.balance);\n    }\n    function sayMemories() public view returns (uint256 ) \n    {\n        return memories;\n    }\n    function sayCaller() public view returns (address ) \n    {\n        return lastCaller;\n    }\n}",
  "sourcePath": "/home/fscucchiero/Desktop/contractTesting/contracts/Inter.sol",
  "compiler": {
    "name": "solc",
    "version": "0.4.24+commit.e67f0147.Emscripten.clang"
  },
  "schemaVersion": "2.0.0",
  "updatedAt": "2018-05-29T20:44:42.944Z"
}